:020000040800F2
:1000000000000520B95F020809600208EDCE000873
:100010000960020809600208096002080000000087
:10002000000000000000000000000000AD1F0308F9
:100030000960020800000000B5210308F3CE0008A3
:1000400009600208096002080960020809600208E4
:1000500009600208096002080960020809600208D4
:1000600009600208096002080960020809600208C4
:1000700009600208096002080960020809600208B4
:1000800009600208096002080960020809600208A4
:100090000960020809600208096002080960020894
:1000A0000960020809600208096002080960020884
:1000B0000960020809600208096002080960020874
:1000C0000960020809600208096002080960020864
:1000D0000960020809600208096002080960020854
:1000E00011CF0008096002080960020809600208CF
:1000F0000960020809600208096002080960020834
:100100000960020809600208096002080960020823
:100110000960020809600208294A0108096002080A
:100120000960020809600208096002080960020803
:1001300009600208FFCE0008096002080960020891
:1001400009600208096002080960020809600208E3
:1001500009600208096002080960020809600208D3
:1001600009600208096002080960020809600208C3
:100170000960020809600208096002080000000026
:1001800009600208096002080960020809600208A3
:100190000960020809600208096002080960020893
:1001A0000960020809600208096002080960020883
:1001B0000960020809600208096002080960020873
:1001C000096002080960020810B5054C237833B9AC
:1001D000044B13B10448AFF300800123237010BD1A
:1001E000403B002000000000F8BA04900C4B43B1E3
:1001F0000C480D4910B5AFF300800C48036823B9D3
:1002000010BD0A48036833B97047094B002BF7D07B
:10021000BDE810401847064B002BF5D0184700BF2B
:1002200000000000F8BA0490443B00209C0A002023
:1002300000000000154B002B08BF134B9D46A3F593
:10024000803A00218B460F461348144A121A44F094
:1002500059FB0F4B002B00D098470E4B002B00D0C2
:1002600098470020002104000D000D48002802D00E
:100270000C4848F0B5FD43F093FF200029001AF028
:10028000D3FB43F07DFF00BF000008000000052005
:100290000000000000000000403B002074C102206C
:1002A000E18D04084DA1040880B485B000AF034679
:1002B000FB800023FB60B7F90630842B05D0B7F92B
:1002C0000620FB6813440333FB60FB6818461437B1
:1002D000BD465DF8047B704780B485B000AF7860A0
:1002E0008423FB817B68062B04D87B689BB2033B8D
:1002F0009BB2FB81B7F90E3018461437BD465DF846
:10030000047B704780B483B000AFEFF305837B605C
:100310007B68002B14BF01230023DBB218460C3787
:10032000BD465DF8047B704780B500AF0DF038F92D
:100330000023184680BD80B500AF0DF09FFF034637
:10034000012B01D1002300E00123184680BD80B5B8
:1003500000AFFFF7D7FF0346002B03D00DF040FAA4
:10036000034602E00DF02CFA0346184680BDF0B5B6
:1003700087B002AF786039607B685C687B681D6815
:100380007B681B699EB27B68B3F908301846FFF79B
:100390008BFF024607F10C03019300923B68324643
:1003A000294620460CF0BCFD0346012B01D000235A
:1003B00000E0FB6818461437BD46F0BD80B500AFBD
:1003C0000DF04CFF0346184680BD80B582B000AFEB
:1003D000786078680CF0DCFE002318460837BD46CC
:1003E00080BD80B400AF074B4FF080521A60BFF35E
:1003F0004F8FBFF36F8F00231846BD465DF8047B17
:10040000704700BF04ED00E080B582B000AF7860B7
:100410000B467B80B7F902301846FFF745FF0346CD
:10042000194678680DF00CF8002318460837BD46C9
:1004300080BD80B582B000AF7860FFF763FF0346F0
:10044000002B08D078680CF0CDFF03461846FFF764
:1004500043FF034607E078680CF0AAFF03461846FE
:10046000FFF73AFF034618460837BD4680BD80B502
:1004700084B000AF78607B68FB60FB68002B01D024
:10048000FB6800E0012318460CF012FF0023184619
:100490001037BD4680BD80B485B000AFF8600B4614
:1004A0007A60FB72002318461437BD465DF8047B62
:1004B000704780B485B000AF786039600023FB607E
:1004C000FF23FB60FB6818461437BD465DF8047BCC
:1004D000704780B485B000AF78600023FB60FF23D5
:1004E000FB60FB6818461437BD465DF8047B704717
:1004F00080B485B000AF78600023FB60FF23FB6011
:10050000FB6818461437BD465DF8047B704780B51C
:1005100086B002AF786039600023FB60FFF7F2FE1F
:100520000346002B19D0396807F10C030093002310
:10053000012278680EF0EAF90346012B01D0FF236F
:1005400017E0FB68002B13D00C4B4FF080521A6061
:10055000BFF34F8FBFF36F8F0AE03968002301228A
:1005600078680EF02FF90346012B01D0FF2300E03D
:10057000002318461037BD4680BD00BF04ED00E0E3
:1005800090B589B000AFF860B9607A6000237B61F4
:100590000023FB617B68B3F1FF3F03D14FF0FF33D2
:1005A000FB6109E07B68002B06D07B68FB61FB697F
:1005B000002B01D10123FB61FFF7A4FE0346002BB2
:1005C00002D082233B611BE0B96807F110031A1DBA
:1005D000FB6900200EF09CF80346012B08D0FB6954
:1005E000002B02D100233B610AE040233B6107E07E
:1005F0007B69002B02DA86233B6101E008233B6123
:10060000FB681C4607F1100393E8070084E8070025
:10061000F8682437BD4690BD80B582B000AF7860E1
:1006200001202CF00DFB034618460837BD4680BD5F
:1006300080B584B000AF786039600023BB607B6810
:10064000002B01D180233CE00023FB603B68B3F129
:10065000FF3F03D14FF0FF33FB6009E03B68002B05
:1006600006D03B68FB60FB68002B01D10123FB60D7
:10067000FFF748FE0346002B17D007F108031A4680
:10068000002178682CF0E0FE0346012B01D0FF2307
:1006900017E0BB68002B13D00C4B4FF080521A6050
:1006A000BFF34F8FBFF36F8F0AE00023FA6800217A
:1006B00078682CF0B0FD0346012B01D0FF2300E049
:1006C000002318461037BD4680BD00BF04ED00E092
:1006D00080B584B000AF78600023FB600023BB606E
:1006E000FFF710FE0346002B16D007F1080319464A
:1006F00078682CF0FFFC0346012B01D0FF2317E0A4
:10070000BB68002B13D00C4B4FF080521A60BFF324
:100710004F8FBFF36F8F0AE000230022002178681B
:100720002CF049FB0346012B01D0FF23FB60FB6843
:1007300018461037BD4680BD04ED00E080B582B09C
:1007400000AF7860FFF7DEFD0346002B01D0822367
:1007500003E078682CF0C8FF002318460837BD4630
:1007600080BD80B584B000AF786039603B68012BF4
:1007700010D10322002101202CF0EAF9F860FB6877
:10078000002B05D0002300220021F8682CF013FB79
:10079000FB6806E03B683A68114618462CF0D6FA2A
:1007A000034618461037BD4680BD80B584B000AF03
:1007B000786039600023BB607B68002B01D1802307
:1007C0003CE00023FB603B68B3F1FF3F03D14FF0F7
:1007D000FF33FB6009E03B68002B06D03B68FB6001
:1007E000FB68002B01D10123FB60FFF78BFD034663
:1007F000002B17D007F108031A46002178682CF067
:1008000023FE0346012B01D0FF2317E0BB68002B1A
:1008100013D00C4B4FF080521A60BFF34F8FBFF3D1
:100820006F8F0AE00023FA68002178682CF0F3FC4F
:100830000346012B01D0FF2300E0002318461037A8
:10084000BD4680BD04ED00E080B584B000AF7860A7
:100850000023FB600023BB60FFF754FD0346002B21
:1008600016D007F10803194678682CF043FC0346BC
:10087000012B01D0FF2317E0BB68002B13D00C4BDA
:100880004FF080521A60BFF34F8FBFF36F8F0AE0B3
:1008900000230022002178682CF08DFA0346012BFA
:1008A00001D0FF23FB60FB6818461037BD4680BDB2
:1008B00004ED00E080B582B000AF7860FFF722FD64
:1008C0000346002B01D0822303E078682CF00CFF54
:1008D000002318460837BD4680BD80B586B000AFFE
:1008E00078607B685B68033323F00303FB601420AC
:1008F00027F0D6FB78617B69002B46D07B681A68AD
:100900007B699A60FA687B69DA607B6900221A6108
:100910007B681B68184627F0C3FB02467B695A6058
:100920007B695B68002B2BD07B681B68FA6802FB35
:1009300003F3184627F0B4FB02467B691A607B6913
:100940001B68002B11D000233B6108E07B695A68CB
:100950003B69134400221A703B6901333B617B6899
:100960001A683B699A42F1D80FE07B695B681846C8
:1009700027F05EFC786927F05BFC00237B6104E0D4
:10098000786927F055FC00237B617B69184618378E
:10099000BD4680BD80B58AB000AF786000237B6221
:1009A00000233B62FFF7AEFC0346002B10D0EFF3B1
:1009B00011824FF0100372B683F31188BFF36F8F6B
:1009C000BFF34F8F62B67A613B617B697B6201E066
:1009D00031F094FB0023FB6129E07B681A69FB6915
:1009E0001344BB617B689A68BB699A4201D80023B3
:1009F000BB617B685A68BB6913441B78002B13D119
:100A00007B685A68BB69134401221A707B681B68B3
:100A100019467B68DB68BA6902FB03F30B443B624F
:100A20007B68BA691A6107E0FB690133FB617B6887
:100A30009A68FB699A42D0D8FFF764FC0346002B02
:100A400005D07B6AFB60FB6883F3118801E031F01D
:100A500087FB3B6A18462837BD4680BD80B584B009
:100A600000AF78607868FFF795FFF860FB68002BAF
:100A700004D004220021F86843F044FFFB681846C4
:100A80001037BD4680BD80B485B000AF7860396056
:100A90007B68002B01D1802330E03B68002B01D123
:100AA00080232BE07B681A683B689A4201D9802337
:100AB00024E03B687A6812689B1AFB607B68DA68FE
:100AC000FB68B3FBF2F102FB01F29B1A002B01D091
:100AD000802313E07B68DB68FA68B2FBF3F3FB600A
:100AE0007B689A68FB689A4201D8802306E07B689D
:100AF0005A68FB68134400221A7000231846143702
:100B0000BD465DF8047B704780B582B000AF786069
:100B100039607B6818687B685B68002219462CF096
:100B200017F8034618460837BD4680BD80B586B025
:100B300000AFF860B9607A6000233B617B687B613D
:100B40007B69002B01D101237B61FFF7DBFB0346AF
:100B5000002B18D007F1100207F108010023F868F4
:100B60002CF02CFA0346012B01D0FF2318E03B693F
:100B7000002B14D00C4B4FF080521A60BFF34F8FF4
:100B8000BFF36F8F0BE007F1080100237A69F86863
:100B90002CF011F90346012B01D0FF2300E00023C4
:100BA00018461837BD4680BD04ED00E090B58BB007
:100BB00000AFF860B9607A60BB68FB610023BB617D
:100BC000BB68002B0AD180237B61FB681C4607F1C0
:100BD000140393E8070084E8070054E000233B6215
:100BE00000237B627B68B3F1FF3F03D14FF0FF33FB
:100BF0007B6209E07B68002B06D07B687B627B6AA6
:100C0000002B01D101237B62FFF77CFB0346002B05
:100C10001CD007F1200207F1140304331946B86809
:100C20002CF012FC0346012B02D110237B6101E062
:100C300000237B613B6A002B1DD0154B4FF0805287
:100C40001A60BFF34F8FBFF36F8F14E007F11403E7
:100C5000191D00237A6AB8682CF0DDFA0346012BCF
:100C600002D110237B6106E07B6A002B01D10023B7
:100C700000E040237B61FB681C4607F1140393E806
:100C8000070084E80700F8682C37BD4690BD00BF18
:100C900004ED00E090B587B000AF786039607B6804
:100CA0001B68FB607B685B683B6100237B617B6842
:100CB0009C680C2027F0F4F9034623607B689B684E
:100CC0001B68002B01D1002339E07B689B681B68FF
:100CD0007A681A607B689B681C687B681B680022C6
:100CE000042118462BF034FF034663607B689B6841
:100CF0001B685B68002B07D17B689B681B681846E4
:100D000027F096FA00231AE07B689B681C6807F1BD
:100D10000C031846FFF7E1FD0346A3607B689B6860
:100D20001B689B68002B07D17B689B681B68184673
:100D300027F07EFA002302E07B689B681B68184658
:100D40001C37BD4690BD80B584B000AF7860396077
:100D50007B68002B01D1002306E07B689B68184666
:100D6000FFF718FEF860FB6818461037BD4680BDD7
:100D700080B584B000AF7860396039687868FFF773
:100D8000E2FFB860BB68002B0DD00023FB6007E0DA
:100D9000BA68FB68134400221A70FB680133FB60D9
:100DA000FB68032BF4D9BB6818461037BD4680BDDD
:100DB00080B584B000AF786039607B68002B01D1CA
:100DC00080232CE00023FB60FFF79CFA0346002BF6
:100DD00018D07B68586807F10C02394600232CF0C4
:100DE000EDF80346012B01D0FF2318E0FB68002B30
:100DF00014D00D4B4FF080521A60BFF34F8FBFF3EA
:100E00006F8F0BE07B6858683946002300222BF077
:100E1000D2FF0346012B01D0FF2300E00023184638
:100E20001037BD4680BD00BF04ED00E090B58BB02B
:100E300000AFF860B9607A60BB68FB61BB68002BEB
:100E40000AD180237B61FB681C4607F1140393E8F9
:100E5000070084E8070056E000233B6200237B6222
:100E60007B68B3F1FF3F03D14FF0FF337B6209E0B2
:100E70007B68002B06D07B687B627B6A002B01D1EC
:100E800001237B62FFF73EFA0346002B1DD0BB68AF
:100E9000586807F1200207F11403043319462CF0B7
:100EA000D3FA0346012B02D120237B6101E000230A
:100EB0007B613B6A002B1ED0154B4FF080521A60AD
:100EC000BFF34F8FBFF36F8F15E0BB68586807F112
:100ED0001403191D00237A6A2CF09DF90346012B97
:100EE00002D120237B6106E07B6A002B01D1002325
:100EF00000E040237B61FB681C4607F1140393E884
:100F0000070084E80700F8682C37BD4690BD00BF95
:100F100004ED00E080B582B000AF786039607B6896
:100F2000002B01D1802306E07B689B683968184656
:100F3000FFF7A9FD034618460837BD4680BD80B5BA
:100F400000AF0DF09BF90346012B01D031F06BF996
:100F500000BF80BD80B483B000AF786081231846A5
:100F60000C37BD465DF8047B704780B483B000AF9A
:100F70007860812318460C37BD465DF8047B7047C6
:100F800080B500AF0CF070FB0023184680BD80B523
:100F900000AF0CF077FB0346012B01D1002300E0EA
:100FA000FF23184680BD80B483B000AF78603960FD
:100FB000812318460C37BD465DF8047B704780B42A
:100FC00083B000AF7860812318460C37BD465DF8CA
:100FD000047B704780B582B000AF786078680DF010
:100FE0008EFA002318460837BD4680BD90B589B0FB
:100FF00000AFF860B9607A60BB68BB61BB68002B6A
:101000000AD180233B61FB681C4607F1100393E87B
:10101000070084E8070030E00023FB617B68B3F140
:10102000FF3F03D14FF0FF33FB6109E07B68002BEA
:1010300006D07B68FB61FB69002B01D10123FB61BA
:1010400007F11003191D0123FA69B8682CF0E3F8C1
:101050000346012B02D110233B6106E0FB69002B04
:1010600001D1002300E040233B61FB681C4607F1EF
:10107000100393E8070084E80700F8682437BD46AA
:1010800090BD80B582B000AF7860FFF73BF90346B2
:10109000002B04D078682CF00AFB034603E0786844
:1010A0002CF0C2FA034618460837BD4680BD80B50D
:1010B00082B000AF786078682CF0D5FA0346184605
:1010C0000837BD4680BD80B582B000AF7860FFF7BD
:1010D00019F90346002B01D0822303E078682CF035
:1010E00003FB002318460837BD4680BD80B582B09B
:1010F00000AF786004202BF0A3FD034618460837A4
:10110000BD4680BD80B584B000AF78600023FB6031
:1011100078682BF0ADFD0346012B01D0FF23FB6067
:10112000FB6818461037BD4680BD80B584B000AF5F
:10113000786039607B68002B01D180231DE000239B
:10114000FB603B68B3F1FF3F03D14FF0FF33FB601F
:1011500009E03B68002B06D03B68FB60FB68002B76
:1011600001D10123FB60F96878682BF0B6FD0346D6
:10117000012B01D0FF2300E0002318461037BD46A5
:1011800080BD80B582B000AF786078682CF04CFAF2
:10119000034618460837BD4680BD00BF90B5D9B09C
:1011A00000AF3B1D18600023C7F854310023C7F877
:1011B00050310023C7F84C310023C7F85C310023BD
:1011C000C7F858313B1D1B681B6803F00103002B57
:1011D00015D07C4A7B4B9B6823F4000393607949CC
:1011E000784B9A683B1D1B685B6B13438B603B1D00
:1011F0001B685B6B002B02D10123C7F85C313B1DE0
:101200001B681B6803F40023002B1CD06D496D4B39
:10121000D3F88C3023F440123B1D1B68DB6B134367
:10122000C1F88C303B1D1B68DB6BB3F5801F02D10E
:101230000123C7F85C313B1D1B68DB6B002B02D11F
:101240000123C7F858313B1D1B681B6803F480134A
:10125000002B1CD05B495B4BD3F88C3023F440024D
:101260003B1D1B681B6C1343C1F88C303B1D1B6876
:101270001B6CB3F5800F02D10123C7F85C313B1D15
:101280001B681B6C002B02D10123C7F858313B1D92
:101290001B681B6803F08073002B02D00123C7F882
:1012A0005C313B1D1B681B6803F02003002B00F022
:1012B0009F80444A434B1B6C43F080531364414B63
:1012C0001B6C03F0805207F108031A6007F1080352
:1012D0001B683D4A3C4B1B6843F4807313601EF04F
:1012E0001BF8C7F854010AE01EF016F80246D7F8BA
:1012F0005431D31A642B02D9032300F051BE324B70
:101300001B6803F48073002BEED02E4B1B6F03F48D
:101310004073C7F85031D7F85031002B3CD03B1DFB
:101320001B681B6B03F44072D7F850319A4233D0DC
:10133000244B1B6F23F44073C7F85031214A214BD3
:101340001B6F43F4803313671E4A1E4B1B6F23F43D
:10135000803313671B4AD7F850311367194B1B6F43
:1013600003F00103002B17D01DF0D6FFC7F854017E
:101370000CE01DF0D1FF0246D7F85431D31A41F2E8
:101380008832934202D9032300F00ABE0D4B1B6F33
:1013900003F00203002BECD03B1D1B681B6B03F416
:1013A0004073B3F5407F13D10648064B9B6823F486
:1013B000F8123B1D1B68196B044B0B4013438360F1
:1013C0000CE000BF0038024000700040FFFCFF0F3F
:1013D000B64AB64B9B6823F4F8139360B349B34BFA
:1013E0001A6F3B1D1B681B6BC3F30B0313430B6787
:1013F0003B1D1B681B6803F01003002B11D0AB4A88
:10140000AA4BD3F88C3023F08073C2F88C30A749F4
:10141000A64BD3F88C203B1D1B689B6B1343C1F874
:101420008C303B1D1B681B6803F48043002B0BD0E2
:101430009E499E4BD3F8903023F440323B1D1B68ED
:101440005B6E1343C1F890303B1D1B681B6803F4AF
:101450000043002B0BD09549944BD3F8903023F4E4
:1014600040223B1D1B689B6E1343C1F890303B1D0F
:101470001B681B6803F48033002B0BD08B498B4B0C
:10148000D3F8903023F440123B1D1B68DB6E1343EE
:10149000C1F890303B1D1B681B6803F40033002B20
:1014A0000BD08249814BD3F8903023F440023B1D8E
:1014B0001B681B6F1343C1F890303B1D1B681B68F2
:1014C00003F04003002B0BD07849784BD3F89030D1
:1014D00023F003023B1D1B685B6C1343C1F8903083
:1014E0003B1D1B681B6803F08003002B0BD06F496A
:1014F0006E4BD3F8903023F00C023B1D1B689B6CA5
:101500001343C1F890303B1D1B681B6803F48073C4
:10151000002B0BD06549654BD3F8903023F0300297
:101520003B1D1B68DB6C1343C1F890303B1D1B68EF
:101530001B6803F40073002B0BD05C495B4BD3F8A2
:10154000903023F0C0023B1D1B681B6D1343C1F894
:1015500090303B1D1B681B6803F48063002B0BD08D
:101560005249524BD3F8903023F440723B1D1B6814
:101570005B6D1343C1F890303B1D1B681B6803F47F
:101580000063002B0BD04949484BD3F8903023F42B
:1015900040623B1D1B689B6D1343C1F890303B1D9F
:1015A0001B681B6803F48053002B0BD03F493F4B53
:1015B000D3F8903023F440523B1D1B68DB6D13437E
:1015C000C1F890303B1D1B681B6803F40053002BCF
:1015D0000BD03649354BD3F8903023F440423B1DB5
:1015E0001B681B6E1343C1F890303B1D1B681B68C2
:1015F00003F48003002B0BD02C492C4BD3F89030F4
:1016000023F080623B1D1B689B6F1343C1F8903031
:101610003B1D1B681B6803F40013002B14D02349E7
:10162000224BD3F8903023F000623B1D1B68DB6F28
:101630001343C1F890303B1D1B68DB6FB3F1006FA3
:1016400002D10123C7F858313B1D1B681B6803F00A
:101650000803002B02D00123C7F858313B1D1B683B
:101660001B6803F48023002B0BD010490F4BD3F8D9
:10167000903023F040723B1D1B685B6F1343C1F831
:1016800090303B1D1B681B6803F40003002B0FD038
:101690000649064BD3F8903023F080523B1D1B685F
:1016A000D3F880301343C1F8903001E00038024095
:1016B000D7F85C31012B06D03B1D1B681B68B3F1CA
:1016C000007F40F049820B4A0A4B1B6823F080637D
:1016D00013601DF021FEC7F854010DE01DF01CFE43
:1016E0000246D7F85431D31A642B05D9032300F0EE
:1016F00057BC00BF00380240E34B1B6803F0006397
:10170000002BEBD13B1D1B681B6803F00103002B72
:1017100000F082803B1D1B685B6B002B7CD1DA4B99
:10172000D3F8843003F440324FF44033C7F820310B
:10173000D7F8203193FAA3F3C7F81C31D7F81C313E
:10174000B3FA83F322FA03F3C7F85031CE4BD3F840
:10175000843003F070624FF07063C7F82831D7F817
:10176000283193FAA3F3C7F82431D7F82431B3FA18
:1017700083F322FA03F3C7F84C31C3483B1D1B68BF
:101780005A6847F6C073C7F83031D7F8303193FA4A
:10179000A3F3C7F82C31D7F82C31B3FA83F39A406E
:1017A0004FF44033C7F83831D7F8383193FAA3F300
:1017B000C7F83431D7F83431B3FA83F3D7F850117E
:1017C00001FA03F31A434FF07063C7F84031D7F8BA
:1017D000403193FAA3F3C7F83C31D7F83C31B3FA60
:1017E00083F3D7F84C1101FA03F31A433B1D1B682E
:1017F00099684FF0E043C7F84831D7F8483193FA79
:10180000A3F3C7F84431D7F84431B3FA83F301FAAC
:1018100003F31343C0F884303B1D1B681B6803F4BB
:101820000023002B05D03B1D1B68DB6BB3F5801F2D
:101830000ED03B1D1B681B6803F48013002B00F0C7
:1018400091803B1D1B681B6CB3F5800F40F08A80B4
:101850008D4BD3F8843003F440324FF44033C7F853
:10186000F030D7F8F03093FAA3F3C7F8EC30D7F89C
:10187000EC30B3FA83F322FA03F3C7F85031824B0A
:10188000D3F8843003F0E0424FF0E043C7F8F8307B
:10189000D7F8F83093FAA3F3C7F8F430D7F8F43058
:1018A000B3FA83F322FA03F3C7F84C3176483B1DB1
:1018B0001B685A6847F6C073C7F80031D7F8003183
:1018C00093FAA3F3C7F8FC30D7F8FC30B3FA83F3EC
:1018D0009A404FF44033C7F80831D7F8083193FAEB
:1018E000A3F3C7F80431D7F80431B3FA83F3D7F878
:1018F000501101FA03F31A433B1D1B68D9684FF0DE
:101900007063C7F81031D7F8103193FAA3F3C7F812
:101910000C31D7F80C31B3FA83F301FA03F31A430D
:101920004FF0E043C7F81831D7F8183193FAA3F312
:10193000C7F81431D7F81431B3FA83F3D7F84C1140
:1019400001FA03F31343C0F884304F494E4BD3F8E8
:101950008C3023F01F023B1D1B685B6A013B134365
:10196000C1F88C303B1D1B681B6803F08073002B93
:101970007CD0454BD3F8843003F070624FF0706335
:10198000C7F8C030D7F8C03093FAA3F3C7F8BC301B
:10199000D7F8BC30B3FA83F322FA03F3C7F8503117
:1019A000394BD3F8843003F0E0424FF0E043C7F8FE
:1019B000C830D7F8C83093FAA3F3C7F8C430D7F8C3
:1019C000C430B3FA83F322FA03F3C7F84C312E483C
:1019D0003B1D1B685A6847F6C073C7F8D030D7F86C
:1019E000D03093FAA3F3C7F8CC30D7F8CC30B3FAA1
:1019F00083F39A403B1D1B6819694FF44033C7F8C5
:101A0000D830D7F8D83093FAA3F3C7F8D430D7F842
:101A1000D430B3FA83F301FA03F31A434FF070633F
:101A2000C7F8E030D7F8E03093FAA3F3C7F8DC301A
:101A3000D7F8DC30B3FA83F3D7F8501101FA03F387
:101A40001A434FF0E043C7F8E830D7F8E83093FA8C
:101A5000A3F3C7F8E430D7F8E430B3FA83F3D7F848
:101A60004C1101FA03F31343C0F884303B1D1B688B
:101A70001B6803F00073002B53D003483B1D1B6809
:101A80005A6847F6C07301E000380240C7F8A0303A
:101A9000D7F8A03093FAA3F3C7F89C30D7F89C305E
:101AA000B3FA83F39A403B1D1B6819694FF4403326
:101AB000C7F8A830D7F8A83093FAA3F3C7F8A43032
:101AC000D7F8A430B3FA83F301FA03F31A433B1DAA
:101AD0001B68D9684FF07063C7F8B030D7F8B030E2
:101AE00093FAA3F3C7F8AC30D7F8AC30B3FA83F36A
:101AF00001FA03F31A433B1D1B6899684FF0E0435A
:101B0000C7F8B830D7F8B83093FAA3F3C7F8B430B1
:101B1000D7F8B430B3FA83F301FA03F31343C0F8F0
:101B200084301A4A194B1B6843F0806313601DF020
:101B3000F3FBC7F8540109E01DF0EEFB0246D7F8AD
:101B40005431D31A642B01D9032329E20F4B1B68AC
:101B500003F00063002BEFD0D7F85831012B40F091
:101B60001E820A4A094B1B6823F0805313601DF044
:101B7000D3FBC7F854010BE01DF0CEFB0246D7F8AB
:101B80005431D31A642B03D9032309E200380240ED
:101B9000D04B1B6803F00053B3F1005FECD03B1D4A
:101BA0001B681B6803F40023002B04D03B1D1B683B
:101BB000DB6B002B0DD03B1D1B681B6803F48013EF
:101BC000002B00F087803B1D1B681B6C002B40F036
:101BD0008180C04BD3F8883003F440324FF4403357
:101BE0003B673B6F93FAA3F3FB66FB6EB3FA83F399
:101BF00022FA03F3C7F85031B64BD3F8883003F01C
:101C0000E0424FF0E043BB67BB6F93FAA3F37B67FF
:101C10007B6FB3FA83F322FA03F3C7F84C31AD4874
:101C20003B1D1B685A6947F6C073C7F88030D7F868
:101C3000803093FAA3F3FB67FB6FB3FA83F39A4008
:101C40004FF44033C7F88830D7F8883093FAA3F3BD
:101C5000C7F88430D7F88430B3FA83F3D7F850113B
:101C600001FA03F31A433B1D1B6899694FF0706337
:101C7000C7F89030D7F8903093FAA3F3C7F88C30B8
:101C8000D7F88C30B3FA83F301FA03F31A434FF019
:101C9000E043C7F89830D7F8983093FAA3F3C7F821
:101CA0009430D7F89430B3FA83F3D7F84C1101FA93
:101CB00003F31343C0F888308649864BD3F88C3041
:101CC00023F4F8523B1D1B689B6A013B1B02134324
:101CD000C1F88C303B1D1B681B6803F40013002BFC
:101CE00000F094803B1D1B68DB6FB3F1006F40F088
:101CF0008D80784BD3F8883003F0706207F1400391
:101D00004FF07061196007F140031B6893FAA3F16B
:101D100007F13C03196007F13C031B68B3FA83F336
:101D200022FA03F3C7F850316A4BD3F8883003F036
:101D3000E04207F148034FF0E041196007F1480322
:101D40001B6893FAA3F107F14403196007F14403F8
:101D50001B68B3FA83F322FA03F3C7F84C315D4CE6
:101D60003B1D1B685A6907F1500347F6C0711960A3
:101D700007F150031B6893FAA3F107F14C031960B4
:101D800007F14C031B68B3FA83F39A403B1D1B68B1
:101D9000196A07F158034FF44030186007F15803EF
:101DA0001B6893FAA3F007F15403186007F154037A
:101DB0001B68B3FA83F301FA03F31A4307F16003D4
:101DC0004FF07061196007F160031B6893FAA3F18B
:101DD00007F15C03196007F15C031B68B3FA83F336
:101DE000D7F8501101FA03F31A434FF0E043BB66F2
:101DF000BB6E93FAA3F37B667B6EB3FA83F3D7F8DB
:101E00004C1101FA03F31343C4F888303B1D1B68DF
:101E10001B6803F00803002B00F0A5802D4BD3F8BE
:101E2000883003F0706207F110034FF070611960A1
:101E300007F110031B6893FAA3F107F10C03196073
:101E400007F10C031B68B3FA83F322FA03F3C7F814
:101E50005031204BD3F8883003F4403207F1180397
:101E60004FF44031196007F118031B6893FAA3F18E
:101E700007F11403196007F114031B68B3FA83F325
:101E800022FA03F3C7F84C31124C3B1D1B685A6908
:101E900007F1200347F6C071196007F120031B68A2
:101EA00093FAA3F107F11C03196007F11C031B68E7
:101EB000B3FA83F39A4007F128034FF440311960D5
:101EC00007F128031B6893FAA3F107F124031960B3
:101ED00002E000BF0038024007F124031B68B3FA98
:101EE00083F3D7F84C1101FA03F31A4307F13003D7
:101EF0004FF07061196007F130031B6893FAA3F18A
:101F000007F12C03196007F12C031B68B3FA83F364
:101F1000D7F8501101FA03F31A433B1D1B68D96926
:101F200007F138034FF0E040186007F138031B68F1
:101F300093FAA3F007F13403186007F134031B6828
:101F4000B3FA83F301FA03F31343C4F88830174953
:101F5000164BD3F88C3023F440323B1D1B68DB6AF0
:101F60001343C1F88C30114A104B1B6843F0805367
:101F700013601DF0D1F9C7F8540109E01DF0CCF948
:101F80000246D7F85431D31A642B01D9032307E052
:101F9000064B1B6803F00053B3F1005FEED1002342
:101FA000184607F5B277BD4690BD00BF0038024025
:101FB00080B49BB000AF786000237B667B68B24A38
:101FC0001A60B24BD3F8842047F6C073134047F62B
:101FD000C0723A613A6992FAA2F2FA60FA68B2FA09
:101FE00082F223FA02F27B685A60A84BD3F884305D
:101FF00003F440324FF44033BB61BB6993FAA3F35F
:102000007B617B69B3FA83F3DA407B681A619F4B8B
:10201000D3F8843003F070624FF070633B623B6A28
:1020200093FAA3F3FB61FB69B3FA83F3DA407B68AD
:10203000DA60964BD3F8843003F0E0424FF0E0438F
:10204000BB62BB6A93FAA3F37B627B6AB3FA83F346
:10205000DA407B689A608D4BD3F8882047F6C073CE
:10206000134047F6C0723A633A6B92FAA2F2FA62F0
:10207000FA6AB2FA82F223FA02F27B685A61834B5F
:10208000D3F8883003F440324FF44033BB63BB6B6A
:1020900093FAA3F37B637B6BB3FA83F3DA407B6839
:1020A0001A627A4BD3F8883003F070624FF0706395
:1020B0003B643B6C93FAA3F3FB63FB6BB3FA83F3D0
:1020C000DA407B689A61714BD3F8883003F0E042C4
:1020D0004FF0E043BB64BB6C93FAA3F37B647B6C6F
:1020E000B3FA83F3DA407B68DA61684BD3F88C305B
:1020F00003F01F021F233B653B6D93FAA3F3FB64C0
:10210000FB6CB3FA83F3DA407B685A625F4BD3F817
:102110008C3003F4F8524FF4F853BB65BB6D93FA5F
:10212000A3F37B657B6DB3FA83F3DA407B689A6235
:10213000564BD3F88C3003F440324FF440333B66B7
:102140003B6E93FAA3F3FB65FB6DB3FA83F3DA40BE
:102150007B68DA624D4BD3F88C3003F440127B6815
:10216000DA634A4BD3F88C3003F440027B681A647C
:10217000464B9B6803F400027B685A63434BD3F8D9
:10218000903003F440327B685A66404BD3F890306D
:1021900003F440227B689A663C4BD3F8903003F4FA
:1021A00040127B68DA66394BD3F8903003F4400272
:1021B0007B681A67354BD3F8903003F003027B68D5
:1021C0005A64324BD3F8903003F00C027B689A6467
:1021D0002E4BD3F8903003F030027B68DA642B4B3F
:1021E000D3F8903003F0C0027B681A65274BD3F810
:1021F000903003F440727B685A65244BD3F89030DA
:1022000003F440627B689A65204BD3F8903003F466
:1022100040527B68DA651D4BD3F8903003F440429E
:102220007B681A66194BD3F8903003F040727B68D4
:102230005A67164BD3F8903003F080627B689A6738
:10224000124BD3F8903003F000627B68DA670F4BD3
:10225000D3F8903003F080527B68C3F880200B4B9A
:102260009B6803F4F8137B66084B1B6F03F4407202
:102270007B6E1A437B681A63044BD3F88C3003F0EF
:102280008073002B08D103E0F1FFFF00003802400B
:102290007B6800229A6303E07B684FF080729A6348
:1022A00000BF6C37BD465DF8047B704780B487B0D3
:1022B00000AF78600023FB6000237B6100233B615B
:1022C0000023BB607B68B3F5002F40F086808C4B09
:1022D000D3F88C30BB60BB6803F44013BB60BB68B1
:1022E000B3F5801F3ED0B3F5001F73D0002B00D094
:1022F00073E0834B5B6803F48003002B08D1804BB1
:102300005B6803F03F037F4AB2FBF3F33B6107E0F6
:102310007B4B5B6803F03F037B4AB2FBF3F33B610B
:10232000774BD3F888301B0E03F00F03FB60744B20
:10233000D3F888309B09C3F308033A6902FB03F220
:10234000FB68B2FBF3F37B616D4BD3F88C301B0A57
:1023500003F01F030133FB607A69FB68B2FBF3F300
:102360007B613AE0664B5B6803F48003002B08D185
:10237000634B5B6803F03F03624AB2FBF3F33B61DC
:1023800007E05F4B5B6803F03F035F4AB2FBF3F388
:102390003B615B4BD3F884301B0E03F00F03FB60F3
:1023A000574BD3F884309B09C3F308033A6902FB07
:1023B00003F2FB68B2FBF3F37B61514BD3F88C3033
:1023C00003F01F030133FB607A69FB68B2FBF3F390
:1023D0007B6102E04D4B7B6100BF7B68B3F5801FE2
:1023E00040F08680464BD3F88C30BB60BB6803F46A
:1023F0004003BB60BB68B3F5800F3ED0B3F5000F60
:1024000073D0002B00D073E03D4B5B6803F4800376
:10241000002B08D13A4B5B6803F03F03394AB2FB0B
:10242000F3F33B6107E0364B5B6803F03F03364A4A
:10243000B2FBF3F33B61324BD3F888301B0E03F051
:102440000F03FB602E4BD3F888309B09C3F30803BE
:102450003A6902FB03F2FB68B2FBF3F37B61284BA2
:10246000D3F88C301B0A03F01F030133FB607A6939
:10247000FB68B2FBF3F37B613AE0214B5B6803F44A
:102480008003002B08D11E4B5B6803F03F031D4AFD
:10249000B2FBF3F33B6107E0194B5B6803F03F03CA
:1024A000194AB2FBF3F33B61154BD3F884301B0E92
:1024B00003F00F03FB60124BD3F884309B09C3F386
:1024C00008033A6902FB03F2FB68B2FBF3F37B619A
:1024D0000B4BD3F88C3003F01F030133FB607A6998
:1024E000FB68B2FBF3F37B6102E0084B7B6100BF4A
:1024F0007B6918461C37BD465DF8047B704700BFFA
:10250000003802400024F40040787D010080BB00C8
:1025100080B500AF1B4B1B78002B29D127F0B8FAF0
:102520000246194B1A60184B1B68002B02D14FF062
:10253000FF3324E0144B1B68134A1268127A42F0EE
:102540002002D2B21A72104B1B6844220F4918465F
:1025500027F07DF90C4B1B6843220C49184627F0E5
:10256000E7F9094B1B6800220949184627F04DFA84
:10257000044B1B780133DAB2024B1A700023184661
:1025800080BD00BF603B00205C3B0020F4F00408ED
:10259000953B000880B500AF094B1B78013BDAB2D0
:1025A000074B1A70064B1B78002B07D1054B1B6895
:1025B000184627F03CFA034B00221A6000BF80BD8A
:1025C000603B00205C3B002080B584B000AF7860A9
:1025D0007B685B6AFB600C21F86800F0E4FF064B47
:1025E000054A0549786811F05DFC786800F040FC08
:1025F00000BF1037BD4680BDF4F0040880B584B03C
:1026000000AF78607B685B6AFB600821F86800F0C7
:10261000CAFFFB68283300221946786828F08EF933
:102620000346FB72FB689B7AFF2B05D0FB689B7A05
:102630000133DAB2FB689A724FF4FA733B813B893B
:1026400003F2F313064A82FB03125211DB17D31A6B
:102650009AB2FB68DA8200BF1037BD4680BD00BF6A
:10266000D34D621080B584B000AF78607B685B6A40
:10267000FB600C4B9B78002B0FD00B4B9B681846D4
:1026800026F07DFD0246FB685A62FB685B681A69AA
:10269000FB689A62786800F009F800BF1037BD4601
:1026A00080BD00BFB0880120BC88012080B588B003
:1026B00002AF78607B685B6A3B610121386900F09A
:1026C00072FF03223969786801F034FB0346FB731B
:1026D00097F90F30002B59D102223921386900F0C7
:1026E0007CFF7B685B8D1946386900F0B4FF0422DB
:1026F0003221386900F071FF3B699B6A184626F069
:102700003EFD03461946386900F0D0FF0422362109
:10271000386900F062FF3B695B6A184626F02FFDBE
:1027200003461946386900F0C1FF04223721386991
:1027300000F053FF0023FB7509E0FB7D294AD35CC1
:102740001946386900F06FFFFB7D0133FB75FB7D97
:10275000032BF2D9386901F026FC3B69DA683B6942
:102760009B8AF0339BB2194610461FF02CF91E4B82
:1027700018683B69D9681D4B01937B68009343231C
:102780001B4A26F0DCFF386901F0F2FB3B699B7ABB
:10279000FF2B05D03B699B7A0133DAB23B699A7211
:1027A0003B699B7A052B07D83B699B7A1A464FF405
:1027B0007A7393409BB201E04EF66023BB81BB89E4
:1027C00003F2F3130B4A82FB03125211DB17D31AE5
:1027D0009AB23B69DA8297F90F3018461837BD462E
:1027E00080BD00BF040000205C3B0020F4F0040822
:1027F000F8F00408D34D621080B582B000AF274BCB
:102800001B687B6042E07B685B6A3B603B68002B37
:1028100039D03B685B7A002B35D03B685B8C002B52
:1028200012D03B681B8C01339AB23B681A843B6818
:102830001A8C3B685B8C9A4206D1786800F00CFEDB
:10284000786800F015FB1EE03B68DB8B002B0BD09B
:102850003B68DB8B5A1E91B23A68D183012B03D1BE
:10286000786800F0C7F80EE03B689B8B002B0AD01D
:102870003B689B8B5A1E91B23A689183012B02D11F
:10288000786800F088F87B681B687B607B68002BA9
:10289000B9D100BF0837BD4680BD00BFB4CE01200E
:1028A00080B582B000AF164B1B687B6020E07B6870
:1028B0005B6A3B603B68002B17D03B68DB8A012BCF
:1028C00006D93B68DB8A013B9AB23B68DA820CE0AE
:1028D0003B68DB8A012B08D13B68DB8A013B9AB25B
:1028E0003B68DA82786800F00DF87B681B687B60D3
:1028F0007B68002BDBD100BF0837BD4680BD00BF21
:10290000B4CE012080B584B000AF78607B685B6A8C
:10291000FB60FB685B7A0C2B03D0FB685B7A062BB1
:1029200003D1786800F0A4FA31E0FB685B7A012BF0
:102930000ED1FB689B7A052B03D87868FFF7B6FEAB
:1029400025E0786800F088FD786800F091FA1EE0D4
:10295000FB685B7A082B0BD1FB689B7A012B03D8B1
:102960007868FFF74BFE12E0786800F00DFB0EE090
:10297000FB685B7A032B0AD1FB689B7A012B03D897
:10298000786800F0D5FC02E0786800F071FA00BFCA
:102990001037BD4680BD80B584B000AF78607B68DD
:1029A0005B6AFB60FB685B7A012B07D0FB685B7A94
:1029B0000A2B03D0FB685B7A052B17D1786800F0EF
:1029C000ABFBFB685B8B1A46FB681B8CD31A012B95
:1029D0000CDDFB685B8B1A46FB681B8CD31A002B43
:1029E00000DA01335B109AB2FB689A8300BF10379C
:1029F000BD4680BD80B584B000AF78607B685B6AFF
:102A0000FB60FB685B7A012B0BD0FB685B7A0A2BBF
:102A100007D0FB685B7A052B03D0FB685B7A042B3D
:102A200017D1786800F0FEFBFB685B8C1A46FB68E8
:102A30001B8CD31A012B0CDDFB685B8C1A46FB68E0
:102A40001B8CD31A002B00DA01335B109AB2FB689F
:102A5000DA8300BF1037BD4680BD80B584B000AFBB
:102A600078607B685B6AFB60FB680022DA62FB6867
:102A700000221A63274BDB78002B03D0264BDA6841
:102A8000FB685A63234B1B79002B04D0224B1A6935
:102A9000FB689A6304E0FB685B6B5A08FB689A6307
:102AA0001C4B5B79002B04D01B4B5A69FB68DA6323
:102AB00007E0FB685A6B1346DB009B1ADA08FB68D9
:102AC000DA63FB685B681A69FB689A62114B9B7951
:102AD000002B0BD0104B9B69184626F050FB02468A
:102AE000FB68DA62FB680122DA7202E0FB6800220E
:102AF000DA72084BDB79002B07D0074BDB691846ED
:102B000026F03DFB0246FB681A6300BF1037BD4646
:102B100080BD00BFB0880120BC88012080B582B094
:102B200000AF7860396040220021386841F0EAFE49
:102B30007B683A685A6200BF0837BD4680BD80B5E1
:102B400082B000AF78607B685B6A002B07D07B683F
:102B50005B6A184618F062FB7B6800225A6200BF6D
:102B60000837BD4680BD80B584B000AF78607B6813
:102B7000002B02D16FF00F034CE07B6893F83330E9
:102B800003F00103002B02D16FF00F0342E07B68DA
:102B90005B6AFB607B685B8DB3F5107F02D24FF000
:102BA000FF3337E0FB68002B0DD1402018F040FCCC
:102BB000F860FB68002B02D14FF0FF332AE07B68FE
:102BC000FA685A6205E0FB681B7A002B01D0FFF718
:102BD000E1FC40220021F86841F094FEFFF798FCE8
:102BE0000346002B02D04FF0FF3313E0FB680122B5
:102BF0001A72786800F03CF90346FB7297F90B30C3
:102C0000002B05D0786800F0AFFC4FF0FF3301E0F7
:102C100097F90B3018461037BD4680BD80B596B089
:102C200002AF7860002387F84F307B68002B4CD0D0
:102C3000FFF76EFC0346002B49D107F10C0340223D
:102C40000021184641F05EFE07F10C0307211846EB
:102C500000F0A9FC07F10C0308221946786801F07E
:102C600069F8034687F84F3097F94F30002B29D188
:102C700007F10C0302223921184600F0AEFC7B68F4
:102C80005A8D07F10C031146184600F0E4FC07F1D9
:102C90000C03184601F087F9BA693B8CF0339BB2FC
:102CA000194610461EF08FFE0B4B1868B9697B68F9
:102CB00000934323094A26F005FD07F10C0318464B
:102CC00001F056F9FFF766FC02E000BF00E000BF2C
:102CD0005037BD4680BD00BF5C3B0020F8F00408C3
:102CE00080B584B000AF78607B685B6AFB60FB688E
:102CF000002B2CD0FB685B7A0A2B20D801A252F85B
:102D000023F000BF532D00083F2D00083F2D000881
:102D1000312D0008312D0008312D00083F2D00080D
:102D20003F2D00083F2D00083F2D0008312D0008E1
:102D3000FB6800229A72786800F0FAFA0AE0FB68F1
:102D400000229A72786800F093F800BF02E000BF9A
:102D500000E000BF1037BD4680BD80B584B000AF35
:102D6000786039607B68002B13D07B685B6AFB60FE
:102D7000FB68002B0ED0FB685B7A082B0AD13B68FE
:102D80001A68FB689B6A9A4204D1786800F005F8DB
:102D900000E000BF1037BD4680BD80B586B002AFF1
:102DA00078607B685B6AFB600023FB720C21F8682B
:102DB00000F0F9FB0422F968786800F0BBFF0346D5
:102DC000FB7297F90B30002B2AD104223221F868CC
:102DD00000F003FCFB689B6A184626F0D0F9034616
:102DE0001946F86800F062FCF86801F0DCF8FB684E
:102DF000DA68FB689B8AF0339BB2194610461EF0D6
:102E0000E2FD174B1868FB68D968164B01937B6885
:102E100000934323144A26F092FCF86801F0A8F8C6
:102E2000FB689B7AFF2B05D0FB689B7A0133DAB2F3
:102E3000FB689A7242F210733B813B8903F2F313F1
:102E40000A4A82FB03125211DB17D31A9AB2FB68AB
:102E5000DA8297F90B3018461037BD4680BD00BFA7
:102E60005C3B0020F4F00408F8F00408D34D621035
:102E700080B588B002AF78607B685B6A3B610023F5
:102E8000FB733B6900229A620621386900F08BFBD4
:102E900001223969786800F04DFF0346FB7397F90A
:102EA0000F30002B3BD102223921386900F095FB0D
:102EB0007B685B8D1946386900F0CDFB0422372111
:102EC000386900F08AFB0023FB7509E0FB7D294A85
:102ED000D35C1946386900F0A6FBFB7D0133FB7516
:102EE000FB7D032BF2D9386901F05DF83B69DA68A4
:102EF0003B699B8AF0339BB2194610461EF063FD76
:102F00001D4B18683B69D9681C4B01937B68009383
:102F100043231B4A26F013FC386901F029F83B696A
:102F20009B7AFF2B05D03B699B7A0133DAB23B6970
:102F30009A723B699B7A052B07D83B699B7A1A46A4
:102F40004FF47A7393409BB201E04EF66023BB814D
:102F5000BB8903F2F3130B4A82FB03125211DB17F6
:102F6000D31A9AB23B69DA8297F90F3018461837AC
:102F7000BD4680BD040000205C3B0020F4F0040846
:102F8000F8F00408D34D621080B588B000AF7860C7
:102F90007B68002B00F0B7807B685B6ABB61BB6914
:102FA000002B00F0B280BB6900221A84BB695B6B06
:102FB000B3F1FF3F19D0BB695B6B1E33554AA2FBCF
:102FC00003235B09FB61FB69B3F5803F02D34FF636
:102FD000FF73FB61FB699AB2BB695A84BB695B8C66
:102FE000002B02D1BB6901225A84BB699B6BB3F1F0
:102FF000FF3F1DD0BB699B6B1E33464AA2FB0323D8
:103000005B09FB61FB69B3F5803F02D34FF6FF73A9
:10301000FB61FB699AB2BB691A83BB691B8B002BEE
:1030200002D1BB6901221A83BB691A8BBB699A83DF
:10303000BB69DB6BB3F1FF3F1DD0BB69DB6B1E339C
:10304000344AA2FB03235B09FB61FB69B3F5803FB4
:1030500002D34FF6FF73FB61FB699AB2BB695A83D7
:10306000BB695B8B002B02D1BB6901225A83BB6910
:103070005A8BBB69DA83BB691A8BBB695B8B9A423B
:1030800006D3BB695B8B002B02D0BB6900221A837D
:10309000BB69DB7A002B03D0BB69DB6A3B6114E0C0
:1030A000BB6928331B78FB7597F91730002B02DBBF
:1030B000FF233B6109E0FB7DBF2B03D96FF07F430A
:1030C0003B6102E04FF6FF733B61BB691B6BFB602A
:1030D000FB68002B08D1BB699A6A3B691340FB600F
:1030E000FB6843F08073FB600A21B86900F05BFA6B
:1030F000BB6903F1280107F10C0307F1100278689E
:1031000010F0D0FE02E000BF00E000BF2037BD4657
:1031100080BD00BF8988888880B588B002AF78609C
:103120007B685B6A3B610521386900F03CFA032249
:103130003969786800F0FEFD0346FB7397F90F309C
:10314000002B3BD102223921386900F046FA7B6816
:103150005B8D1946386900F07EFA04223721386900
:1031600000F03BFA0023FB7509E0FB7D2A4AD35CA3
:103170001946386900F057FAFB7D0133FB75FB7D7A
:10318000032BF2D9386900F00EFF3B69DA683B691E
:103190009B8AF0339BB2194610461EF014FC1F4B5D
:1031A00018683B69D9683B6903F124027B68009386
:1031B000432326F087FA386900F0DAFE3B699B7AF0
:1031C000FF2B05D03B699B7A0133DAB23B699A72D7
:1031D0003B699B7A092B0AD83B699B7A9BB21A46BA
:1031E0005201D21A920013441B019BB201E044F633
:1031F0002063BB81BB8903F2F313094A82FB0312EC
:103200005211DB17D31A9AB23B69DA8297F90F3061
:1032100018461837BD4680BD040000205C3B0020E6
:10322000D34D621080B588B002AF78607B685B6A6E
:103230003B610421386900F0B6F9032239697868E6
:1032400000F078FD0346FB7397F90F30002B39D15E
:1032500002223921386900F0C0F97B685B8D19467C
:10326000386900F0F8F904223721386900F0B5F91F
:103270000023FB7509E0FB7D294AD35C19463869B8
:1032800000F0D1F9FB7D0133FB75FB7D032BF2D9F7
:10329000386900F088FE3B69DA683B699B8AF03345
:1032A0009BB2194610461EF08EFB1E4B18683B69F8
:1032B000D9687B68009343231B4A26F003FA3869D8
:1032C00000F056FE3B699B7AFF2B05D03B699B7A49
:1032D0000133DAB23B699A723B699B7A092B0AD8AF
:1032E0003B699B7A9BB21A465201D21A9200134450
:1032F000DB009BB201E042F21073BB81BB8903F299
:10330000F3130A4A82FB03125211DB17D31A9AB243
:103310003B69DA8297F90F3018461837BD4680BDF1
:10332000040000205C3B0020F8F00408D34D62103C
:1033300080B588B002AF78607B685B6A3B6103212F
:10334000386900F030F903223969786800F0F2FC3E
:103350000346FB7397F90F30002B47D10222392126
:10336000386900F03AF94FF41071386900F073F9D8
:1033700004223221386900F030F93B699B6A184613
:1033800025F0FDFE03461946386900F08FF9042246
:103390003721386900F021F90023FB7509E0FB7D36
:1033A000294AD35C1946386900F03DF9FB7D0133A9
:1033B000FB75FB7D032BF2D9386900F0F4FD3B6906
:1033C000DA683B699B8AF0339BB2194610461EF0BF
:1033D000FAFA1E4B18683B69D9687B68009343234F
:1033E0001B4A26F06FF9386900F0C2FD3B699B7AF1
:1033F000FF2B05D03B699B7A0133DAB23B699A72A5
:103400003B699B7A092B0AD83B699B7A9BB21A4687
:103410005201D21A92001344DB009BB201E042F247
:103420001073BB81BB8903F2F3130A4A82FB0312B8
:103430005211DB17D31A9AB23B69DA8297F90F302F
:1034400018461837BD4680BD040000205C3B0020B4
:10345000F8F00408D34D621080B588B002AF7860F0
:103460007B685B6A7B617B69002B02D16FF00F0385
:1034700072E07B695B6AFB60786800F0C9FD034617
:10348000FB740021786900F08EF87B6900225A6293
:103490007B6900229A627B690022DA627B690022E2
:1034A0001A637B690022DA637B69DA6B7B699A6352
:1034B0007B699A6B7B695A637B6900225A847B69BA
:1034C0005A8C7B691A847B691A8C7B69DA837B69E5
:1034D000DA8B7B699A83FB7C002B01D100233BE0D4
:1034E00007227969786800F025FC0346BB7497F9D8
:1034F0001230002B28D104223621786900F06DF8B3
:10350000FB68184625F03BFE03461946786900F033
:10351000CDF8786900F047FD7B69DA687B699B8AA2
:10352000F0339BB2194610461EF04DFA0C4B18684A
:103530007B69D96807F10C027B680093432326F06E
:10354000C1F8786900F014FD064B064A0549786811
:1035500010F0A8FC97F9123018461837BD4680BD08
:103560005C3B0020F4F0040880B584B000AF7860C4
:103570007B68002B13D07B685B6AFB60FB68002BC9
:103580000ED00021F86800F00EF8FB681B7A002BC3
:1035900006D0FEF7FFFFFB6800221A7200E000BFB2
:1035A0001037BD4680BD80B483B000AF78600B4655
:1035B000FB707B685B7AFA789A4208D07B68FA786D
:1035C0005A727B6800229A727B680022DA8200BFFE
:1035D0000C37BD465DF8047B704780B483B000AF04
:1035E00078600B46FB701346BB707B681A697B687A
:1035F0009B8A591C88B2796888821344FA7883F8C8
:10360000F0207B681A697B689B8A591C88B27968AC
:1036100088821344BA7883F8F02000BF0C37BD4687
:103620005DF8047B704780B483B000AF78600B46D0
:10363000FB707B681A697B689B8A591C88B2796821
:1036400088821344FA7883F8F02000BF0C37BD4617
:103650005DF8047B704780B483B000AF78600B46A0
:103660007B807B681A697B689B8A591C88B2796861
:10367000888218467B881B0A9BB2D9B213180A4667
:1036800083F8F0207B681A697B689B8A591C88B292
:10369000796888827988C9B213440A4683F8F02091
:1036A00000BF0C37BD465DF8047B704780B483B023
:1036B00000AF786039607B681A697B689B8A591C07
:1036C00088B27968888218463B681B0ED9B21318F5
:1036D0000A4683F8F0207B681A697B689B8A591C2C
:1036E00088B27968888218463B681B0CD9B21318D7
:1036F0000A4683F8F0207B681A697B689B8A591C0C
:1037000088B27968888218463B681B0AD9B21318B8
:103710000A4683F8F0207B681A697B689B8A591CEB
:1037200088B2796888823968C9B213440A4683F836
:10373000F02000BF0C37BD465DF8047B704780B5B4
:103740008EB000AF7860396000237B6200233B625B
:103750000A220021B24841F0D5F83B685B892B2B47
:1037600002D86FF001030CE23B685A687B685A602C
:10377000F023FB853B681B89BB853B68BB620CE083
:10378000BB6A5B89FA8DD31AFB85BB6A5B89BA8DEC
:10379000D31ABB85BB6A1B68BB62BB6A002B04D013
:1037A000BB6A5B89FA8D9A42EAD2BB6A002B02D1CE
:1037B0006FF00103E5E1FB8D7B86BB8D3B86BB6A29
:1037C0005B687B639DE17B8E7A6B13441B787B7512
:1037D0000023BB774FF0FF33BB617B8E0233FB824C
:1037E0007B8E0133BA6A5289934206DA7B8E0133AB
:1037F0007A6B13441B78FB770AE0BB6A1B68002BCB
:1038000004D0BB6A1B685B681B7800E00023FB7771
:10381000FB7FBB777B7D3B2B00F2E78001A252F858
:1038200023F000BF1539000825390008EB390008DE
:1038300037390008EB390008EB3900084F39000828
:10384000EB390008EB390008EB390008EB390008C8
:10385000EB390008EB390008EB390008EB390008B8
:10386000EB390008EB390008EB390008EB390008A8
:10387000EB390008EB390008EB390008EB39000898
:10388000EB390008EB390008EB390008EB39000888
:10389000EB390008EB390008EB390008EB39000878
:1038A000EB390008EB390008EB390008EB39000868
:1038B000EB390008EB390008EB390008EB39000858
:1038C000EB390008EB390008EB390008EB39000848
:1038D000EB390008EB390008EB390008EB39000838
:1038E000EB390008EB390008EB390008EB39000828
:1038F0007F39000891390008A3390008B53900085C
:10390000EB390008EB390008EB390008C73900082B
:10391000D93900080023FB77FB7FBB777B8E013B07
:103920007B8665E0FB7F042B02D06FF0050328E166
:103930000623BB615CE00423BB77FA7FBB7F9A421E
:1039400002D26FF005031CE10723BB6150E0FB7F4F
:1039500003F00303DBB2002B02D06FF0050310E18C
:10396000FB7F082B28BF0823BB77FA7FBB7F9A42D7
:1039700002D26FF0050304E10823BB6138E0FB7F4E
:10398000042B02D06FF00503FBE00323BB612FE0A3
:10399000FB7F012B02D06FF00503F2E00023BB6137
:1039A00026E0FB7F012B02D06FF00503E9E0012345
:1039B000BB611DE0FB7F042B02D06FF00503E0E04C
:1039C0000223BB6114E0FB7F042B02D06FF00503E0
:1039D000D7E00423BB610BE0FB7F042B02D06FF028
:1039E0000503CEE00523BB6102E00023BB7700BFE7
:1039F000FB7F9AB27B8E13449BB202337B86BB7FE4
:103A0000002B62D00023BB60054ABB6913441B78BE
:103A1000002B5AD1BB7F032B04D8BB7F9BB202E0A3
:103A2000B088012004237B82FB8A7A8A07F108018F
:103A3000B86A1EF059FA03461A467B8A934202D0AE
:103A40006FF001039DE0BB7F042B20D9BB7F03F007
:103A50000303DBB2002B02D06FF0050391E04B4A69
:103A6000BB69134401221A70BB68184625F087FB16
:103A70000146474ABB6942F82310BB7F043BBB7732
:103A8000FB8A0433FB82BB690133BB61BCE7BB7FAC
:103A9000042B06D1BB68184625F071FB0346BB60BA
:103AA00009E0BB7F012B02D06FF0050369E007F14D
:103AB00008031B78BB60354ABB69134401221A70A6
:103AC000BA683349BB6941F82320BB6A5B897A8EA7
:103AD0009A4216D3BB6A5B897A8ED31A7B86BB6AFD
:103AE0005B893A8ED31A3B867A8E3B8E9A4216D2E7
:103AF0003B8E002B13D0BB6A1B68BB62BB6A5B6842
:103B00007B63BB6A002B0AD07B8E7A6B13441B78D5
:103B1000FF2B04D07A8E3B8E9A42FFF454AE1B4B9F
:103B20001B78002B18D01A4B1B68FB60174B002228
:103B30001A70FB68012B02D101237B620CE0FB6849
:103B4000022B02D101233B6206E0FB68032B03D169
:103B500001233B6201237B627B6A002B06D000239A
:103B60007B626C23FB85EC23BB8506E63B6A002B5E
:103B700006D000233B622C23FB856C23BB85FCE530
:103B8000002318463837BD4680BD00BFB0880120ED
:103B9000BC88012080B58AB000AFF860B9607A6057
:103BA0003B60614B5B683B623B6A5B6AFB617B68C5
:103BB0005B68BB61FB69002B00F0A980FB691B7A85
:103BC000002B00F0A4807B685B892B2B40F2948053
:103BD000BB691B78022B40F09180002387F82730C7
:103BE00012E097F827303A6A134493F82D2097F89B
:103BF0002730B9690B441B7F9A4240F0818097F8C7
:103C00002730013387F827303B6A93F82C3097F838
:103C100027209A4207D297F82730052B03D897F828
:103C200027300F2BDDD9BB695B68184625F0A7FA52
:103C30000246FB691B689A4264D17968F869FFF70C
:103C40007EFD0346002B5FD1384B5B78002B5DD0A7
:103C5000374B5B68FB75FB7D052B28D1FB695B7AD5
:103C6000012B11D1386AFEF7F8FE3B6A93F8333026
:103C700003F00803002B03D0386AFEF7BFFC46E0D0
:103C8000386AFFF781F942E0FB695B7A032B07D0C2
:103C9000FB695B7A042B03D0FB695B7A052B36D179
:103CA000386AFEF7DAFE386AFFF76EF92FE0FB7D1F
:103CB000062B13D1FB695B7A032B0BD0FB695B7A74
:103CC000012B07D0FB695B7A042B03D0FB695B7A7D
:103CD000052B03D1386AFEF777FC18E0FB7D022B39
:103CE00015D1FB695B7A062B11D1FB690022DA82C0
:103CF000386AFEF7B7FC0AE000BF08E000BF06E044
:103D000000BF04E000BF02E000BF00E000BFFB69AD
:103D1000002B02D0FB6900225A6078681DF063FF17
:103D200000BF2837BD4680BD40C00220B0880120BA
:103D3000BC88012090B587B000AFF860B960134629
:103D4000FB71FB68002B02D16FF00F030AE1BB6827
:103D5000002B02D16FF0050304E100224FF49A71A9
:103D600000201DF0D1FC0246BB68DA60BB68DB684E
:103D7000002B02D14FF0FF33F4E0FB79032B0DD081
:103D8000BB689B7A002B05D141F03CF903461A46EB
:103D9000764B1A60754B1A68BB681A60BB68DB68A3
:103DA0005A68BB681A61BB681B6901221A70BB683C
:103DB0001B6901225A70BB681B69FA6892F82C20B3
:103DC0009A70BB681B690022DA70BB681C69BB680B
:103DD0001B68184625F0D3F903466360BB681B696E
:103DE00000221A7200225A72BB681B6900229A7262
:103DF0000022DA72BB681B6900221A7300225A7310
:103E000000229A730022DA73FB79082B10D0FB7919
:103E1000042B0DD0FB79072B0AD0FB79032B0DD196
:103E2000BB685B7A052B03D0BB685B7A042B05D19A
:103E3000BB681B69FA6804321268DA60BB681B69E8
:103E400000221A7400225A7400229A740022DA7432
:103E5000BB681B6900221A7500225A7500229A75E8
:103E60000022DA75BB681B6900221A7600225A7696
:103E700000229A760022DA760023FB8219E0BB68E2
:103E80001A69FB8AF96891F82C1089B2F88A88427D
:103E900008D2F98A052905D8F98AF868014491F809
:103EA0002D1000E0002113440A461A77FB8A0133E3
:103EB000FB82FB8A0F2BE2D90023FB8209E0BB685F
:103EC0001A69FB8A1344002283F82C20FB8A0133F1
:103ED000FB82FB8A3F2BF2D90023FB8209E0BB68FF
:103EE0001A69FB8A1344002283F86C20FB8A013391
:103EF000FB82FB8A7F2BF2D9BB681B69002242F050
:103F0000630283F8EC20002262F07D0283F8ED204A
:103F1000002242F0530283F8EE20002242F06302B6
:103F200083F8EF20BB6800229A820023FB820BE01B
:103F3000BB681A69FB8AF98AC9B213440A4683F836
:103F4000F020FB8A0133FB82FB8A432BF0D901224C
:103F50003521B868FFF741FBFB791946B868FFF7D0
:103F600062FB002318461C37BD4690BD643B002011
:103F700080B582B000AF78607B68002B0FD07B6883
:103F8000DB68002B04D07B68DB6818461DF02BFE35
:103F90007B680022DA607B6800221A6100E000BFC3
:103FA0000837BD4680BD80B483B000AF78607B68C1
:103FB000002B27D07B681A697B689B8A591C88B2C2
:103FC000796888821344FF2283F8F0200BE07B6835
:103FD0001A697B689B8A591C88B279688882134465
:103FE000002283F8F0207B689B8A432B05D97B68ED
:103FF0009B8A03F00303002B05D07B689B8A432B2D
:10400000E5D900E000BF0C37BD465DF8047B704782
:1040100080B485B000AF78607B68002B13D07B68DC
:104020005B6A002B0FD07B685B6AFB60FB685B7A86
:104030000A2B03D0FB685B7A052B01D1012300E03A
:104040000023DBB200E0002318461437BD465DF8BC
:10405000047B704784B080B485B000AF786007F10E
:104060001C0080E80E000023FB60FA693B6A1A43DB
:104070007B6A1A43BB6A1A43FB6A1A433B6B1343BE
:10408000FA681343FB607B685A68074B1340FA6871
:104090001A437B685A60002318461437BD465DF802
:1040A000047B04B0704700BF0081FFFF80B483B081
:1040B00000AF78607B68D3F8803018460C37BD4677
:1040C0005DF8047B704780B483B000AF78603960DE
:1040D0003B681A687B68C3F88020002318460C37B9
:1040E000BD465DF8047B704780B582B000AF786054
:1040F0007B6803221A6001201BF01AF9002318467E
:104100000837BD4680BD80B483B000AF78607B685F
:1041100000221A60002318460C37BD465DF8047B68
:10412000704780B483B000AF78607B681B6803F091
:10413000030318460C37BD465DF8047B704780B416
:1041400085B000AF786039600023FB603B681A6877
:104150007B689A603B685A683B689B681A433B6877
:10416000DB681A433B681B691343FA681343FB601F
:104170007B68DA68064B1340FA681A437B68DA609A
:10418000002318461437BD465DF8047B704700BF16
:1041900000F0FFFF80B483B000AF78607B681B69DC
:1041A000DBB218460C37BD465DF8047B704780B41F
:1041B00085B000AF786039600023FB607B68143302
:1041C0001A463B681344FB60FB681B6818461437AB
:1041D000BD465DF8047B704780B485B000AF786061
:1041E00039600023FB603B681A687B685A623B6851
:1041F0005A687B689A623B689A683B68DB681A4336
:104200003B681B691A433B685B691343FA681343B5
:10421000FB607B68DB6A23F0F702FB681A437B686C
:10422000DA62002318461437BD465DF8047B7047F8
:1042300080B483B000AF78607B681B6B18460C3786
:10424000BD465DF8047B704780B483B000AF7860F2
:104250007B68D3F8803018460C37BD465DF8047B88
:10426000704780B483B000AF786039607B68DB6AE8
:1042700023F480623B681A437B68DA6200231846A5
:104280000C37BD465DF8047B704780B588B000AF41
:10429000786039600023FB613B68BB601023FB60E2
:1042A00040233B6100237B614FF48063BB6107F1D6
:1042B000080319467868FFF742FF41F2883210215F
:1042C000786800F07DFBF861FB6918462037BD4631
:1042D00080BD80B588B000AF786039600023FB6195
:1042E0003B68BB601123FB6040233B6100237B6183
:1042F0004FF48063BB6107F1080319467868FFF744
:104300001EFF41F288321121786800F059FBF861F4
:10431000FB6918462037BD4680BD80B588B000AF28
:10432000786039600023FB613B68BB601223FB604F
:1043300040233B6100237B614FF48063BB6107F145
:10434000080319467868FFF7FAFE41F28832122115
:10435000786800F035FBF861FB6918462037BD46E8
:1043600080BD80B588B000AF786039600023FB6104
:104370003B68BB601823FB6040233B6100237B61EB
:104380004FF48063BB6107F1080319467868FFF7B3
:10439000D6FE41F288321821786800F011FBF861EE
:1043A000FB6918462037BD4680BD80B588B000AF98
:1043B000786039600023FB613B68BB601923FB60B8
:1043C00040233B6100237B614FF48063BB6107F1B5
:1043D000080319467868FFF7B2FE41F288321921C6
:1043E000786800F0EDFAF861FB6918462037BD46A1
:1043F00080BD80B588B000AF786039600023FB6174
:104400003B68BB602023FB6040233B6100237B6152
:104410004FF48063BB6107F1080319467868FFF722
:104420008EFE41F288322021786800F0C9FAF861E6
:10443000FB6918462037BD4680BD80B588B000AF07
:10444000786039600023FB613B68BB602123FB601F
:1044500040233B6100237B614FF48063BB6107F124
:10446000080319467868FFF76AFE41F28832212175
:10447000786800F0A5FAF861FB6918462037BD4658
:1044800080BD80B588B000AF786039600023FB61E3
:104490003B68BB602323FB6040233B6100237B61BF
:1044A0004FF48063BB6107F1080319467868FFF792
:1044B00046FE41F288322321786800F081FAF861E3
:1044C000FB6918462037BD4680BD80B588B000AF77
:1044D000786039600023FB613B68BB602423FB608C
:1044E00040233B6100237B614FF48063BB6107F194
:1044F000080319467868FFF722FE41F2883224212A
:10450000786800F05DFAF861FB6918462037BD460F
:1045100080BD80B588B000AF78600023FB610023C8
:10452000BB602623FB6040233B6100237B614FF48B
:104530008063BB6107F1080319467868FFF7FFFD48
:104540004FF218622621786800F03AFAF861FB69A8
:1045500018462037BD4680BD80B588B000AF786072
:104560000023FB610023BB600C23FB6040233B6105
:1045700000237B614FF48063BB6107F10803194698
:104580007868FFF7DCFD054A0C21786800F018FA1E
:10459000F861FB6918462037BD4680BD00E1F5058E
:1045A00080B58AB000AFF860C7E9002300237B62C2
:1045B0003B683B6107237B614023BB610023FB61B8
:1045C0004FF480633B6207F110031946F868FFF768
:1045D000B6FD41F288320721F86800F0F1F97862FF
:1045E0007B6A18462837BD4680BD80B588B000AFCD
:1045F00078600023FB610023BB600023FB60002385
:104600003B6100237B614FF48063BB6107F10803CA
:1046100019467868FFF793FD786800F0A8F9F8610B
:10462000FB6918462037BD4680BD80B588B000AF15
:1046300078600023FB614FF4D573BB600823FB60F7
:1046400040233B6100237B614FF48063BB6107F132
:10465000080319467868FFF772FD786800F078FB68
:10466000F861FB6918462037BD4680BD80B588B02B
:1046700000AF786039600023FB613B68BB60372383
:10468000FB6040233B6100237B614FF48063BB618F
:1046900007F1080319467868FFF751FD41F28832A7
:1046A0003721786800F08CF9F861FB6918462037EB
:1046B000BD4680BD80B588B000AF7860396000230A
:1046C000FB613A680D4B1343BB602923FB60402319
:1046D0003B6100237B614FF48063BB6107F10803FA
:1046E00019467868FFF72BFD786800F08FFAF861BB
:1046F000FB6918462037BD4680BD00BF0000108012
:1047000080B588B000AF786039600023FB613B68FA
:10471000BB600623FB6040233B6100237B614FF4B9
:104720008063BB6107F1080319467868FFF707FD4E
:1047300041F288320621786800F042F9F861FB699D
:1047400018462037BD4680BD80B588B000AF786080
:104750000023FB610023BB603323FB6040233B61EC
:1047600000237B614FF48063BB6107F108031946A6
:104770007868FFF7E4FC41F288323321786800F072
:104780001FF9F861FB6918462037BD4680BD80B52A
:1047900088B000AF78600023FB610023BB60022378
:1047A000FB60C0233B6100237B614FF48063BB61EE
:1047B00007F1080319467868FFF7C1FC786800F034
:1047C000E5F9F861FB6918462037BD4680BD80B524
:1047D00088B000AF786039600023FB613B68BB6044
:1047E0000923FB60C0233B6100237B614FF480639E
:1047F000BB6107F1080319467868FFF7A0FC7868E9
:1048000000F0C4F9F861FB6918462037BD4680BD49
:1048100080B588B000AF786039600023FB61002369
:10482000BB600323FB6040233B6100237B614FF4AB
:104830008063BB6107F1080319467868FFF77FFCC6
:104840003A680321786800F015FAF861FB691846A8
:104850002037BD4680BD80B588B000AF7860396034
:104860000023FB613B68BB600D23FB6040233B6181
:1048700000237B614FF48063BB6107F10803194695
:104880007868FFF75CFC41F288320D21786800F00F
:1048900097F8F861FB6918462037BD4680BD80B5A2
:1048A00088B000AF78600023FB610023BB600D235C
:1048B000FB6040233B6100237B614FF48063BB615D
:1048C00007F1080319467868FFF739FC41F288328E
:1048D0000D21786800F074F8F861FB6918462037FC
:1048E000BD4680BD80B588B000AF786039600023D8
:1048F000FB613B68BB600123FB6040233B610023FD
:104900007B614FF48063BB6107F108031946786847
:10491000FFF715FC786800F079F9F861FB69184633
:104920002037BD4680BD80B588B000AF7860396063
:104930000023FB613B68BB600623FB6040233B61B7
:1049400000237B614FF48063BB6107F108031946C4
:104950007868FFF7F4FB41F288320621786800F0AE
:104960002FF8F861FB6918462037BD4680BD90B42A
:1049700082B000AF7860104B1B68104AA2FB032383
:104980005B0A41F2883202FB03F423465C1E002BD3
:1049900002D14FF000430AE07B685B6B03F08003B9
:1049A000002BF2D07B6840F2FF529A630023184636
:1049B0000837BD4690BC704734000020D34D6210CC
:1049C00090B587B000AFF8600B467A60FB726C4B15
:1049D0001B686C4AA2FB03235B0A7A6802FB03F4A0
:1049E00023465C1E002B02D14FF00043C3E0FB685E
:1049F0005B6B03F04503002BF2D0FB685B6B03F0AD
:104A00000403002B04D0FB6804229A630423B2E061
:104A1000FB685B6B03F00103002B04D0FB680122F1
:104A20009A630123A7E0F868FFF7B4FB03461A4630
:104A3000FB7A934201D001239DE0FB6840F2FF52D4
:104A40009A630021F868FFF7B2FB78617A694E4BF0
:104A50001340002B01D100238DE07B69002B02DA8B
:104A60004FF0007387E07B6903F08043002B01D097
:104A7000402380E07B6903F00053002B01D08023AA
:104A800079E07B6903F08053002B02D04FF48073F0
:104A900071E07B6903F00063002B02D04FF40073D8
:104AA00069E07B6903F08063002B02D04FF48063E0
:104AB00061E07B6903F08073002B02D04FF4006348
:104AC00059E07B6903F40003002B02D04FF48053BC
:104AD00051E07B6903F48003002B02D04FF40053B4
:104AE00049E07B6903F40013002B02D04FF48043AC
:104AF00041E07B6903F48013002B02D04FF40043A4
:104B000039E07B6903F48023002B02D04FF400339B
:104B100031E07B6903F40033002B02D04FF4802393
:104B200029E07B6903F48033002B02D04FF400238B
:104B300021E07B6903F40043002B02D04FF4801383
:104B400019E07B6903F48043002B02D04FF400137B
:104B500011E07B6903F40053002B02D04FF4800373
:104B600009E07B6903F00803002B02D04FF4000337
:104B700001E04FF4803318461C37BD4690BD00BF9E
:104B800034000020D34D621008E0FFFD90B482B0E5
:104B900000AF78601B4B1B681B4AA2FB03235B0A18
:104BA00041F2883202FB03F423465C1E002B02D143
:104BB0004FF0004320E07B685B6B03F04503002B64
:104BC000F2D07B685B6B03F00403002B04D07B689E
:104BD00004229A6304230FE07B685B6B03F00103FC
:104BE000002B04D07B6801229A63012304E07B68D8
:104BF00040F2FF529A63002318460837BD4690BC26
:104C0000704700BF34000020D34D621090B482B0D2
:104C100000AF7860154B1B68154AA2FB03235B0AA3
:104C200041F2883202FB03F423465C1E002B02D1C2
:104C30004FF0004315E07B685B6B03F04503002BEE
:104C4000F2D07B685B6B03F00403002B04D07B681D
:104C500004229A63042304E07B6840F2FF529A63C3
:104C6000002318460837BD4690BC7047340000202A
:104C7000D34D621090B587B000AFF8600B467A60F4
:104C8000FB72314B1B68314AA2FB03235B0A41F2E2
:104C9000883202FB03F423465C1E002B02D14FF046
:104CA00000434CE0FB685B6B03F04503002BF2D044
:104CB000FB685B6B03F00403002B04D0FB68042249
:104CC0009A6304233BE0FB685B6B03F00103002B5A
:104CD00004D0FB6801229A63012330E0F868FFF7F3
:104CE00059FA03461A46FB7A934201D0012326E083
:104CF000FB6840F2FF529A630021F868FFF757FA09
:104D000078617B6903F46043002B06D17B691B0C3F
:104D10009AB27B681A80002311E07B6903F4804318
:104D2000002B02D04FF4005309E07B6903F40043E9
:104D3000002B02D04FF4805301E04FF4803318462B
:104D40001C37BD4690BD00BF34000020D34D62101B
:104D500090B482B000AF7860184B1B68184AA2FB71
:104D600003235B0A41F2883202FB03F423465C1EF4
:104D7000002B02D14FF000431AE07B685B6B03F01D
:104D80004503002BF2D07B685B6B03F00403002B20
:104D900004D07B6840229A63042309E07B685B6B44
:104DA00003F04003002B02D07B6840229A6300236B
:104DB00018460837BD4690BC704700BF340000203D
:104DC000D34D621080B582B000AF06200AF0FFFE1E
:104DD00078607B68002B04D01022002178683FF0B7
:104DE00091FD7B6818460837BD4680BD80B582B00E
:104DF00000AF78607B68002B13D07B681B68002BAA
:104E00000BD07B681B6818461CF0EDFE7B68002207
:104E10005A607B685A687B681A60796806200AF0D5
:104E20001DFF00BF0837BD4680BD80B582B000AF12
:104E300078600B467B807B68002B01D100231EE04D
:104E40007B681B68002B04D07B681B6818461CF02D
:104E5000CAFE7B880022194600201CF055FC024641
:104E60007B681A607B681B68002B01D1002306E079
:104E70007B681A687B685A607B681B685B681846A9
:104E80000837BD4680BD80B582B000AF78607B68D2
:104E9000002B10D07B681B68002B04D07B681B683C
:104EA00018461CF0A0FE7B6800225A607B685A6896
:104EB0007B681A6000E000BF0837BD4680BD80B542
:104EC00084B000AFF860B9601346FB80FB68002B2C
:104ED00002D16FF00F032BE0FB681B68002B04D09E
:104EE000FB681B6818461CF07EFE02220021002091
:104EF0001CF00AFC0246FB681A60FB681B68002B6A
:104F000005D1FB6800225A604FF0FF3310E0FB68C8
:104F10001B68BA685A60FB681A68FB681B68F988E6
:104F200019811B895381FB681A68FB685A6000234A
:104F300018461037BD4680BD80B582B000AF78609E
:104F400039607B68002B13D03B68002B12D07B6844
:104F50001A683B681B68194610461CF0D4FE7B6833
:104F60001A687B685A60396806200AF077FE02E00A
:104F700000BF00E000BF0837BD4680BD80B485B0EB
:104F800000AFF860B9607A60FB68002B02D16FF067
:104F90000F031DE0BB68002B02D16FF00F0317E079
:104FA0007B68002B02D16FF00F0311E0FB685B6898
:104FB000002B02D16FF001030AE0FB685B685A68BE
:104FC000BB681A60FB685B685A897B681A8000239B
:104FD00018461437BD465DF8047B704780B483B033
:104FE00000AF78607B68002B02D14FF0FF3314E0F4
:104FF0007B685B681B68002B02D14FF0FF330CE02D
:105000007B685B681A687B685A607B685B681B68B2
:10501000002B01D1012300E0002318460C37BD46C8
:105020005DF8047B704780B483B000AF78607B6824
:10503000002B04D07B681A687B685A6000E000BFD0
:105040000C37BD465DF8047B704780B483B000AF79
:10505000786039607B68002B02D03B68002B01D15F
:10506000012315E03B6800225A617B689B69002B95
:1050700006D17B683A689A617B683A68DA6106E033
:105080007B68DB693A685A617B683A68DA610023B9
:1050900018460C37BD465DF8047B704780B485B078
:1050A00000AF78600B467B807B68002B01D100232A
:1050B00014E07B689B69FB600CE0FB68002B06D06A
:1050C000FB685B8A7A889A4201D1FB6806E0FB683C
:1050D0005B69FB60FB68002BEFD100231846143797
:1050E000BD465DF8047B704780B584B000AF786042
:1050F0007B68002B01D1012314E07B689B69FB6076
:105100000CE0FB68BB60FB685B69FB60BB68002B65
:1051100004D0B8683FF074F80023BB60FB68002B34
:10512000EFD1002318461037BD4680BD80B500AFD3
:10513000294B2A4A1A602A4B02221A60284B07225E
:105140005A60274B04229A60254B0722DA60244BD1
:1051500002221A61224B02225A61214B02229A61D9
:105160001D4B00225A601C4B00229A601A4B0422ED
:10517000DA60194B10221A61174B40225A61164B04
:105180004FF480729A61144B0022DA61124B4FF493
:1051900000621A62104B4FF480525A620E4B00228A
:1051A0009A6200210C4800F015F90D490A4807F0F1
:1051B0003FF80346002B03D00A4B01221A7002E08D
:1051C000084B00221A7040F2036000F02DF8054BE6
:1051D0001B78184680BD00BFE4880120400100A074
:1051E000683B00200800002080B500AF0B4B0C4A44
:1051F0001A600A4807F050F80346002B03D0094B09
:1052000001221A7002E0074B00221A7000210348A5
:1052100000F0D8F9034B1B78184680BDE4880120C4
:10522000400100A00900002080B584B000AF786084
:105230000023FB602A4B01221A60294B10225A607E
:10524000274B01229A60264B0022DA604FF6FF724C
:105250002349244807F0D4FA01201AF069F8204BBA
:1052600002221A601E4B10225A601D4B01229A60C6
:105270001B4B0022DA604FF6FF721949194807F0FC
:10528000BFFA174B03221A60154B10225A60144BB9
:1052900008229A60124B0022DA604FF6FF72104922
:1052A000104807F0ADFA4FF40873FB600C4B042272
:1052B0001A600B4B10225A60094B01229A60FB685E
:1052C000074AD3604FF6FF720549064807F098FA7F
:1052D0007968044807F0BFFA00BF1037BD4680BDAB
:1052E000843B0020E488012080B584B000AFF860E2
:1052F000B9607A60F9687B68BA68064807F03AF9DD
:105300000346002B01D0012300E00023184610378C
:10531000BD4680BDE488012080B584B000AFF86050
:10532000B9607A60F9687B68BA68064807F0A4F942
:105330000346002B01D0012300E00023184610375C
:10534000BD4680BDE488012080B584B000AFF86020
:10535000B9607A60F9687B68BA68064807F049F96D
:105360000346002B01D0012300E00023184610372C
:10537000BD4680BDE488012080B584B000AFF860F0
:10538000B9607A60F9687B68BA68064807F0B4F9D2
:105390000346002B01D0012300E0002318461037FC
:1053A000BD4680BDE488012080B582B000AF786042
:1053B0004FF6FF727968064807F022FA0346002B81
:1053C00001D0012300E0002318460837BD4680BD08
:1053D000E488012080B590B000AF78603960704AF1
:1053E0006F4B9B6B43F0010393636D4B9B6B03F01F
:1053F0000103BB62BB6A6A4A694B1B6B43F48003BF
:105400001363674B1B6B03F480037B627B6A644A04
:10541000634B1B6B43F004031363614B1B6B03F083
:1054200004033B623B6A5E4A5D4B1B6B43F008031F
:1054300013635B4B1B6B03F00803FB61FB69584A6A
:10544000574B1B6B43F010031363554B1B6B03F05F
:105450001003BB61BB69524A514B1B6B43F02003E5
:1054600013634F4B1B6B03F020037B617B694C4A3A
:105470004B4B1B6B43F040031363494B1B6B03F017
:1054800040033B613B69464A454B1B6B43F080033D
:105490001363434B1B6B03F08003FB60FB68022329
:1054A0003B6301237B630223BB630C23FB63082361
:1054B000FB6207F12C0319463A480EF0DFFE4CF26E
:1054C0000373FB6207F12C03194637480EF0D6FE32
:1054D0004FF68373FB6207F12C03194633480EF035
:1054E000CDFE4FF63F03FB6207F12C03194630480F
:1054F0000EF0C4FE48F23313FB6207F12C03194689
:105500002C480EF0BBFE2823FB6207F12C03194642
:1055100029480EF0B3FE294B00225A60274B802207
:105520009A60264B4FF40072DA60244B4FF480628D
:105530001A61224B4FF480525A61204B4FF4804243
:105540009A611E4B0022DA611C4B4FF400321A6242
:105550001A4B00225A62194B03229A62174B0022FF
:10556000DA62164B00221A63144B154A1A607B68E4
:10557000124A1A63114A7B689363104823F03AF881
:105580000E4822F08DFF00220F21382020F0C5FBAD
:10559000382020F0DEFB00BF4037BD4680BD00BF95
:1055A0000038024000080240000C02400010024097
:1055B0000014024000180240001C0240943B0020EE
:1055C0001064024080B582B000AF78603960382046
:1055D00020F0CDFB044B054A1A60034823F00AF87B
:1055E00000BF0837BD4680BDF43B00201064024078
:1055F00080B483B000AF7860054A054B1B6F23F47D
:105600000043136700BF0C37BD465DF8047B70474D
:105610000038024080B5B0B000AF7860194A194B2D
:105620001B6C43F080531364164B1B6C03F08053C8
:10563000BB60BB682BF008FF0C23C7F89030002339
:10564000C7F8A8300123C7F8A4300023C7F8983062
:1056500007F1900318462BF0DDF82023FB604FF490
:105660000073FB6307F10C031846FBF797FD054A2F
:10567000044B1B6F43F40043136700BFC037BD46A4
:1056800080BD00BF0038024080B584B000AF034643
:10569000FB710B46BB711346BB80BB88B3F5FA6F39
:1056A00003D9BB88A3F5FA63BB80BB88DBB2FB736D
:1056B000BB797B73FB79BB7307F10C03002219469E
:1056C000064820F021FF43F2F222012103481DF099
:1056D00014FE00BF1037BD4680BD00BF543C002003
:1056E00080B588B000AF0346FB710B46BB71134613
:1056F0007B71FB793B72BB797B727B79BB72002338
:105700003B750023BB610023FB6107F10803002206
:105710001946064820F0D4FD43F2F2220121034845
:105720001DF0EBFD00BF2037BD4680BD543C00207E
:1057300080B500AF164B174A1A60154B00225A600D
:10574000134B7F229A60124BFF22DA60104B00222B
:105750001A610F4B00225A610D4B00229A610C48CE
:1057600020F072FC01210A481DF0E1FD024643F2DF
:10577000F2239A420AD0002200210020FFF7B0FF56
:1057800040F2E27202210C20FFF77EFF00BF80BDD5
:10579000543C002000280040B0B588B000AF7860CD
:1057A00007F1080300221946084820F04FFE7B68E5
:1057B0001D4607F108040FCC0FC594E8030085E8E7
:1057C000030078682037BD46B0BD00BF543C0020C0
:1057D00080B582B000AF3B46002219460A4820F04F
:1057E00049FF3B687B6000233A7962F307037A79CB
:1057F00062F30F23BA7962F31743FA7962F31F63F6
:1058000018460837BD4680BD543C002080B594B092
:1058100000AF7860FFF7DCFF03467B6207F10C0303
:105820001846FFF7B9FFBB7BBB627B7BFB623B7B10
:105830003B6397F826307B6397F82530BB6397F876
:1058400027306433FB6307F1280318463FF0ACF9B7
:10585000F8647B68002B02D07B68FA6C1A60FB6CE2
:1058600018465037BD4680BD80B582B000AF786025
:105870007B68002B01D1012343E07B6893F86930FA
:10588000DBB2002B06D17B68002283F868207868A1
:1058900000F00AFA7B68242283F869207B681B6881
:1058A0007A681268126822F001021A60786801F0C2
:1058B000E7F90346012B01D1012322E07B685B6AF3
:1058C000002B02D0786801F049FC7B681B687A687D
:1058D0001268526822F490425A607B681B687A68AA
:1058E0001268926822F02A029A607B681B687A68C4
:1058F0001268126842F001021A60786801F0D0FC68
:10590000034618460837BD4680BD80B582B000AF5B
:1059100078607B68002B01D101234BE07B6893F812
:105920006930DBB2002B06D17B68002283F8682047
:10593000786800F0B9F97B68242283F869207B68D5
:105940001B687A681268126822F001021A6078688F
:1059500001F096F90346012B01D101232AE07B686F
:105960005B6A002B02D0786801F0F8FB7B681B684B
:105970007A681268526822F490425A607B681B6809
:105980007A681268926822F022029A607B681B682B
:105990007A681268926842F008029A607B681B6815
:1059A0007A681268126842F001021A60786801F0A1
:1059B00077FC034618460837BD4680BD80B582B0E7
:1059C00000AF786039607B68002B01D1012355E07E
:1059D0007B6893F86930DBB2002B06D17B6800222C
:1059E00083F86820786800F05FF97B68242283F8E8
:1059F00069207B681B687A681268126822F00102CD
:105A00001A60786801F03CF90346012B01D10123AB
:105A100034E07B685B6A002B02D0786801F09EFB63
:105A20007B681B687A681268526822F400625A60C8
:105A30007B681B687A681268926822F02A029A6072
:105A40007B681B687A681268526842F480425A6028
:105A50007B681B687A681268526822F020013A68F5
:105A60000A435A607B681B687A681268126842F0C1
:105A700001021A60786801F013FC034618460837E3
:105A8000BD4680BD80B584B000AFF8600B467A603B
:105A9000FB72FB68002B01D101235CE0FB6893F8EB
:105AA0006930DBB2002B06D1FB68002283F8682046
:105AB000F86800F0F9F8FB68242283F86920FB6895
:105AC0001B68FA681268126822F001021A60F8680E
:105AD00001F0D6F80346012B01D101233BE0FB681E
