:020000040800F2
:10000000000005206D2F0108BD2F0108A928010857
:10001000BD2F0108BD2F0108BD2F01080000000001
:10002000000000000000000000000000318C00080B
:10003000BD2F010800000000D18C0008AB2801088A
:10004000BD2F0108BD2F0108BD2F0108BD2F0108DC
:10005000BD2F0108BD2F0108BD2F0108BD2F0108CC
:10006000BD2F0108BD2F0108BD2F0108BD2F0108BC
:10007000BD2F0108BD2F0108BD2F0108BD2F0108AC
:10008000BD2F0108BD2F0108BD2F0108BD2F01089C
:10009000BD2F0108BD2F0108BD2F0108BD2F01088C
:1000A000BD2F0108BD2F0108BD2F0108BD2F01087C
:1000B000BD2F0108BD2F0108BD2F0108BD2F01086C
:1000C000BD2F0108BD2F0108BD2F0108BD2F01085C
:1000D000BD2F0108BD2F0108BD2F0108BD2F01084C
:1000E000BD280108BD2F0108BD2F0108BD2F010843
:1000F000BD2F0108BD2F0108BD2F0108BD2F01082C
:10010000BD2F0108BD2F0108BD2F0108BD2F01081B
:10011000BD2F0108BD2F01089D280108BD2F010832
:10012000BD2F0108BD2F0108BD2F0108BD2F0108FB
:10013000BD2F0108B1280108BD2F0108BD2F0108FE
:10014000BD2F0108BD2F0108BD2F0108BD2F0108DB
:10015000BD2F0108BD2F0108BD2F0108BD2F0108CB
:10016000BD2F0108BD2F0108BD2F0108BD2F0108BB
:10017000BD2F0108BD2F0108BD2F010800000000A0
:10018000BD2F0108BD2F0108BD2F0108BD2F01089B
:10019000BD2F0108BD2F0108BD2F0108BD2F01088B
:1001A000BD2F0108BD2F0108BD2F0108BD2F01087B
:1001B000BD2F0108BD2F0108BD2F0108BD2F01086B
:1001C000BD2F0108BD2F010810B5054C237833B9A8
:1001D000044B13B10448AFF300800123237010BD1A
:1001E000AC3A002000000000E4BE04900C4B43B188
:1001F0000C480D4910B5AFF300800C48036823B9D3
:1002000010BD0A48036833B97047094B002BF7D07B
:10021000BDE810401847064B002BF5D0184700BF2B
:1002200000000000E4BE0490B03A0020080A00205C
:1002300000000000002070477047000037B5002321
:100240000F4C05468DF8073023781BB900F0E8F90C
:10025000012323700324EDB2013CA821284600F0BD
:10026000F5F914F0FF048DF807009DF80730DBB2B4
:1002700003D19DF8070003B030BD512BECD1F8E756
:10028000CA3A002013B500240221C0B28DF80740FD
:1002900000F0DCF98DF807009DF8073003F00F033C
:1002A0008DF807309DF80730052B01D98DF80740F0
:1002B0009DF80720034B9DF807005A7000229A70A2
:1002C00002B010BDCA3A00202DE9F74F294D17465C
:1002D00000248946AB786A788DF807409A4241D964
:1002E000092B42D8244AD15C244A12F803B0244A8C
:1002F00012F803A0234AD45C5FFA80F8224E4046ED
:1003000000F0A4F98DF807009DF8073059464046E3
:10031000338000F09BF98DF8070051469DF80730B7
:10032000404632881B0203F470631343A9F800307F
:10033000338000F08BF98DF8070021469DF80730D7
:100340004046338000F082F98DF807009DF80730B1
:1003500032881B0203F47063134333803B80AB7815
:100360000133AB7003B0BDE8F08FA246A34621462F
:10037000C2E700BFCA3A00201CA4010826A4010855
:1003800030A401083AA40108C83A00200122A4219F
:10039000C0B200F04BB90022A421C0B200F046B9AF
:1003A000FFF7F9BF7047000010B5054CC82000F0FA
:1003B00061F923781BB900F033F90123237010BDD4
:1003C000CA3A0020002313B50C46C0B201218DF8B3
:1003D000073000F03BF98DF807009DF807302360E7
:1003E00002B010BD2DE9F3411F461C4B002490467E
:1003F0005B788DF807408B422DD90929C5B296BF8D
:10040000174A2346174B284697BF565C26465B5C27
:10041000154A98BF545C194600F018F98DF807008A
:100420009DF807102846089B89091960314600F09D
:100430000DF98DF807009DF8073021462846C8F8C9
:10044000003000F003F98DF807009DF8072012092D
:1004500002F004023A6002B0BDE8F081CA3A00201E
:100460004EA4010844A4010858A4010870B58AB03C
:10047000054602F0A1FD002854D14A4B00264A4C03
:100480009D42AE602E610CBF484A494A9D426E6152
:100490002A60484AEE616A604FF001022E62EA600B
:1004A000236B41D143F0800305A943482363236BA9
:1004B000079603F080030193019B80230593122389
:1004C0000693022308930423099302F0AFF84FF434
:1004D000807305A93848059302F0A8F8236C3246CA
:1004E0000F21482043F400032364236C03F400032A
:1004F0000293029B236A43F400032362236A23F4DA
:100500000003236201F0F6F9482001F02BFA49209C
:1005100032460F2101F0EEF9492001F023FA284676
:1005200002F069FB0AB070BD43F0020305A923483D
:100530002363236B079603F002030393039B4FF49B
:1005400080730593122306930223089304230993CF
:1005500002F06CF84FF4007305A91848059302F0F7
:1005600065F8236C32460F211F2043F400132364E7
:10057000236C03F400130493049B236A43F40013D5
:100580002362236A23F40013236201F0B3F91F20CE
:1005900001F0E8F9202032460F2101F0ABF92020CC
:1005A000BBE700BFD03A002000380240005C0040AA
:1005B0000054004032279140001C024000040240D9
:1005C00030B54FF47A7485B005460294BDF82440E6
:1005D0000194089C009402F031FC044628B128469E
:1005E00002F05BFB2846FFF741FF204605B030BD17
:1005F00030B54FF47A7485B005460294BDF82440B6
:100600000194089C009402F061FB044628B128463E
:1006100002F043FB2846FFF729FF204605B030BD16
:100620000148FFF723BF00BFD03A00201FB504AC3C
:10063000012304F8012D0A46014601930094024863
:10064000FFF7D6FF04B010BDD03A00201FB500233D
:1006500004AA02F8013D01238DE80C000A46014678
:100660000348FFF7ADFF9DF80F0005B05DF804FBF0
:10067000D03A002001F01EB92DE9F34116461F467D
:100680004FF44032174B80464FF0340E5A600D46FF
:10069000154A1648126808990EFB02021148099C77
:1006A000926CD960022A18BF00229A60104A1A6020
:1006B00001F0F5FA98B941460A4801F0B9FB70B962
:1006C000009733462A462146064801F014FB30B90C
:1006D0000A21044802B0BDE8F04101F026BB02B097
:1006E000BDE8F081383B00201C3B00204C820120FB
:1006F00000B00240194A002330B512680446342580
:1007000017488FB005FB02020193039305930793EB
:100710008DF834308DF835308DF836304FF4C063B5
:10072000156E0A91FF21526E0893072304920691D9
:1007300001A90C922246099302950B9502F036FD11
:100740000C20084B4FF0FF3160431A1851600649E6
:1007500091604FF07F421A500FB030BD1C3B00201B
:100760004C820120203B0020380000201A4A002340
:1007700070B512680446342518488EB0022605FB71
:1007800002020193039307938DF834308DF83530CE
:100790008DF836304FF4C063156E0A91FF21526E0A
:1007A000089307230492069101A90C92224609930B
:1007B000029505960B9502F0F9FC0C20084B4FF0C2
:1007C000FF3160431A185160064991604FF07F4233
:1007D0001A500EB070BD00BF1C3B00204C8201209F
:1007E000203B002038000020014B1860704700BFFC
:1007F0001C3B0020034B1A680C235343024AD05081
:10080000704700BF1C3B0020203B0020034B0C2105
:10081000034A1B6801FB0323586070471C3B002000
:10082000203B0020034B0C21034A1B6801FB0323E0
:10083000986070471C3B0020203B0020084B13B5FC
:100840001C683421074B0190204601FB0431002332
:100850005C3100930EC9FFF70FFF02B010BD00BF5F
:100860001C3B00204C8201200A4B30B51B6834250C
:10087000094C05FB03439C6C022C1C6EDB6D04FBD6
:10088000010103D192B223F8112030BD43F8212099
:1008900030BD00BF1C3B00204C8201202DE9F04FF1
:1008A0002F4B85B0A2F120044FF00008D3F800A030
:1008B000019002910C212B4801FB0A018968B1F8D3
:1008C0000490B1F806B009F107060A680BFB04F4BE
:1008D000F610C9EBC60006FB042409F1FF3252FAF8
:1008E00080F30393029BD84503EB080293B2009375
:1008F00002D305B0BDE8F08F012E09D0022E0FD033
:10090000657822782D0245EA0245A278154300E079
:1009100025780027B94508D808F101083444E1E7F3
:100920002278657845EA0225F3E7039B0122D91B6B
:100930008A402A424FF00C020BD0019B02FB0AF2C4
:10094000D819084B9A58009980B2FFF78DFF0137EC
:10095000E0E7044B02FB0A32019B5268D819F2E728
:100960001C3B0020203B00202DE9F84307460D46A4
:100970001446101B12F8011B0029FAD1214A0C263B
:10098000DFF888804FF0340C1168012B1E4A0CFBF5
:10099000018C06FB0126DCF86020B668B6F804E09E
:1009A000B2FBFEF21AD0022B1FD03BB2A146002BA5
:1009B0004FF03403D8BF012703FB0188A9EB0403E0
:1009C000B088D8F860109BB219F8012B00FB131304
:1009D0009BB2834200D36AB9BDE8F883101A0EFBBC
:1009E00000F007EB500087B2DFE7101A10FB0EF0A3
:1009F000C01BF8E738462946FFF750FFB088384457
:100A000087B2DBE71C3B0020203B00204C8201200A
:100A100053892DE9F04F9BB29589DFF8D4803427B4
:100A200043EA05432F4DD8F8004085B0968B07FB6D
:100A30000454D2F812B0D2F816A0276E039507FB23
:100A40000101E76D07EB8107A6F12001072916D9FF
:100A5000A6F1100107298CBF01210221F6080AF135
:100A6000FF354FF00009204C0BFB06F6029106FB08
:100A700005351544D14504D105B0BDE8F08F0021FE
:100A8000ECE74FF48033FF22174863600023626372
:100A9000029AA360E3602363A362144BE2622360C3
:100AA00001F0FDF888B90121204601F0C1F960B9D3
:100AB00001233A462946204600935B4601F01BF984
:100AC00018B90A21204601F030F9D8F80030342254
:100AD0000399AD1B09F1010902FB03131B6E07EB20
:100AE0008307C7E74C820120383B002000B002405A
:100AF0001C3B0020F7B5124C124E25680C246C43A9
:100B000056F804E03424104E04FB0564A76C022F51
:100B1000276EE46D07FB01014FF03400CDF804E0CF
:100B200000FB05660CBF04EB410104EB8101306E54
:100B3000801A00902846FFF79FFD03B0F0BD00BF6C
:100B40001C3B0020203B00204C8201204B4B4C489A
:100B50005A6C42F08062F0B55A648FB05A6C02242D
:100B60000E2509A902F080624FF48057454E00928D
:100B7000009A1A6B42F400021A631A6B02F4000224
:100B80000192019A1A6B42F010021A631A6B02F07A
:100B900010020292029A1A6B42F040021A631A6B18
:100BA00002F040020392039A1A6B42F480721A63B5
:100BB0001A6B02F480720492049A1A6B42F4007267
:100BC0001A631A6B02F400720592059A1A6B42F4CA
:100BD00080621A631A6B02F480620692069A1A6B9C
:100BE00042F480721A631A6B02F480720792079AB9
:100BF0001A6B42F480621A631B6B0A9403F48063DD
:100C00000C940D950893089B1023099300230B93D4
:100C100001F00CFD092309A91B480A940D930997BB
:100C200001F004FD4FF4664309A930460A94099384
:100C30000D9501F0FBFC4EF6FF7309A913480993CB
:100C40000A940D9501F0F2FC0A94F723104C09A9BF
:100C50000D9501252046099301F0E8FC09A93046CD
:100C600009970A9501F0E2FC082309A920460A9594
:100C7000099301F0DBFC0FB0F0BD00BF003802406B
:100C800000100240002002400018024000240240F0
:100C900000280240054808230360C0234361052360
:100CA000C3614FF48033C36203F0EAB8783B00209D
:100CB00010B52823264C0021636109232046A36137
:100CC0003523E3610B23236240F21B13A36240F23E
:100CD0001523636240F21D13236340F23523E36260
:100CE000FFF7D8FF4FF4F073204623664FF4887364
:100CF0006366002384F8343084F8353084F8363065
:100D00006360A360E3602361124B236002F077FA13
:100D1000014610B92046FFF719FF0D4802F0D6F939
:100D200001224FF480510C4801F014FE01220821E9
:100D30000A4801F00FFE00F027FC094B0C21094A7C
:100D40001B68002001FB0323074A9A6010BD00BF07
:100D50004C8201200068014000200240002802402F
:100D60001C3B0020203B00203800002000B54FF441
:100D7000807395B04FF080720C9305230F9201227F
:100D800006930023019206A90D930E930B931193E2
:100D90001293139300930493102303926A460293D1
:100DA0004FF4800305930346044802F0EFFB003044
:100DB00018BF012015B05DF804FB00BFF4820120CC
:100DC00000B54FF4807395B041F2883217480C9308
:100DD000062306A9069300230D930E930F930B93FE
:100DE00011931293139302F08EFBE0B90223049047
:100DF0006A4606A90093019301230C48039310232C
:100E000002934FF480030593052306934FF08073FC
:100E10000F9341F2883302F0B9FB003018BF012074
:100E200015B05DF804FB0120FAE700BFF482012051
:100E300000B54FF4807391B04FF040720F480893A3
:100E4000EB230B920A2202934FF44063079210AAFD
:100E500009934FF4005302A90593002342F8403D43
:100E60000A930D930E930F93019302F0E1FB003070
:100E700018BF012011B05DF804FB00BFF48201200F
:100E8000454B9A6B42F00202F0B59A638DB09A6BB3
:100E90000924424D07A902F0020204272846002631
:100EA0000092009A9A6942F002029A619A6922F0CD
:100EB00002029A611A6B42F002021A631A6B02F084
:100EC00002020192019A1A6B42F002021A631A6B33
:100ED00002F002020292029A1A6B42F008021A63AE
:100EE0001A6B02F008020392039A1A6B42F008028E
:100EF0001A631A6B02F008020492049A1A6B42F009
:100F000010021A631A6B02F010020592059A1A6B0E
:100F100042F008021A631B6B03F008030693069B5A
:100F200040230793022308930123099303230A9381
:100F30000A230B9301F07AFB07A928460797099625
:100F40000B9401F073FB4FF4006307A90B941D444D
:100F50000793284601F06AFB4FF4805307A92846FF
:100F600007930B9401F062FB07A90D4807970B94B8
:100F700001F05CFB4FF4005307A928460B9407933C
:100F800001F054FB32460F215C2000F0B3FC5C20E2
:100F900000F0E8FC0DB0F0BD003802400004024053
:100FA00000100240F0B5484C91B0484B20462360F9
:100FB00002F08DFA054600283ED101462046FFF793
:100FC0005FFF042301264FF08077A3601023666043
:100FD000E36097FAA7F3B3FA83F32046A561013BD8
:100FE000E561256223614FF4A063636102F012FAA8
:100FF00010BB4FF480756623099041F288320A9045
:1010000002A90B9007900D900E900F902046089526
:10101000029302F078FA68B9992341F2883202A962
:101020002046029302F06FFA20B941F28830FFF7B0
:101030009DFE18B1042544E0012542E08523099076
:101040000A9041F28832079002A90D900E900F90FD
:101050002046089502930B970C9602F054FA00284C
:10106000E8D141F288320DF10701204602F0BBFBC6
:101070000028DFD1FFF7A4FE05460028DAD181233E
:10108000F022029392FAA2F20A219DF80730B2FAF6
:1010900082F2204603F00F0301FA02F202A9134381
:1010A00041F288328DF8073002F02DFA0028C1D1C4
:1010B00041F288320DF10701204602F036FB00288C
:1010C000B8D1284611B0F0BDF4820120001000A074
:1010D000012307B54FF4005107488DF8073001F0A0
:1010E00033FC012802D100238DF807309DF807005A
:1010F00003B05DF804FB00BF0008024007B5009391
:1011000013460A460146044803F06FFC003018BF3E
:10111000012003B05DF804FB4083012007B5009374
:1011200013460A460146044803F03CFD003018BF50
:10113000012003B05DF804FB40830120574B5A6C3B
:1011400042F400622DE9F04F5A648FB05A6C0327C5
:101150000EAC064602F400624FF004085048002529
:1011600005924FF4804B059A4FF0200A1A6B4FF40A
:10117000403942F480021A631A6B02F4800206922C
:10118000069A1A6B42F004021A631A6B02F0040208
:101190000792079A1A6B42F008021A631B6B0C97AE
:1011A00003F008030893089B02230A9301230B937F
:1011B0000C230D934FF4F85344F8143D214601F0ED
:1011C00035FA21463748CDF8248001F02FFA002265
:1011D0000E213120344C00F08DFB312000F0C2FB99
:1011E0004FF4805331484FF0006163614FF48062E7
:1011F00001934FF4000320602046E3624FF4001394
:10120000F46361600391226102922363A560E5604B
:10121000C4F818B0C4F81CA0C4F82090C4F8248006
:10122000A762A66300F088FC2046214C00F006FC73
:10123000019B0399204663614FF40003029AE36225
:101240004FF400136160402123631A4B3464236020
:10125000A1602261E560C4F818B0C4F81CA0C4F80D
:101260002090C4F82480A762A66300F065FC2046A5
:1012700000F0E4FB2A460F213B2000F03BFB3B2023
:1012800000F070FB2A460F21452000F033FB45207B
:1012900000F068FB0FB0BDE8F08F00BF00380240DF
:1012A00000080240000C0240FC3B00205864024051
:1012B0005C3C0020A06402407FB50D4B01A90D48A5
:1012C0001A6B42F004021A631B6B03F004030093D1
:1012D000009B4FF4005301930023029301230393D7
:1012E0000323049301F0A2F907B05DF804FB00BFEB
:1012F000003802400008024070B5144C0025144B21
:1013000029462046A560E56025616561A56184E800
:101310002800FFF7D1FFFFF7DBFE0128064609D1C1
:1013200020462946FFF70AFF204603F0C2FE18B107
:10133000304670BD0226FBE74FF40061204603F003
:10134000E4FE061C18BF0126F2E700BF408301201F
:10135000002C014008B5034803F05BFF043818BFB8
:10136000012008BD408301200146014803F0BBBEB7
:10137000408301202DE9F743224C0126224D4FF0F6
:1013800000081027214681464FF6FF722846CDF807
:101390000480A660C4F80C8084E8C00003F06EFFEF
:1013A000304600F087FA022321464FF6FF722846A6
:1013B000A660C4F80C8084E8880003F05FFF032374
:1013C00021464FF6FF722846C4F80C8084E8880056
:1013D0000823A36003F052FF4FF408734FF6FF7227
:1013E0002146284601930423A66084E88800019BD7
:1013F000E36003F043FF4946284603F056FF03B07D
:10140000BDE8F083BC3C0020C4830120554B9A6B9F
:1014100042F0010270B59A638EB09A6B06460EAC2C
:10142000514802F0010200250192019A1A6B42F420
:1014300080021A631A6B02F480020292029A1A6BFB
:1014400042F004021A631A6B02F004020392039A38
:101450001A6B42F008021A631A6B02F00802049237
:10146000049A1A6B42F010021A631A6B02F010020F
:101470000592059A1A6B42F020021A631A6B02F069
:1014800020020692069A1A6B42F040021A631A6B07
:1014900002F040020792079A1A6B42F080021A6328
:1014A00001221B6B0B9203F080030893089B02231D
:1014B0000A930C930C230D93082344F8143D214602
:1014C00001F0B4F84CF2037321462848099301F067
:1014D000ADF84FF6837321462548099301F0A6F82D
:1014E0004FF63F0321462348099301F09FF848F245
:1014F000331321462048099301F098F82823214608
:101500001E481F4C099301F091F880232563204663
:101510003463A3604FF400736560E3604FF480634D
:10152000E56123614FF48053656263614FF480434A
:10153000E562A3614FF40033A66323620323A36231
:10154000104B236000F0F8FA204600F077FA2A46A4
:101550000F21382000F0CEF9382000F003FA0EB049
:1015600070BD00BF0038024000080240000C02407D
:10157000001002400014024000180240001C02400B
:10158000E83C00201064024038B51A4C07211A4B81
:1015900004221A4D20462360022369602B602B61D0
:1015A0006B61AB611023E96000212361402361601E
:1015B00063614FF48073A160A3614FF40063E26044
:1015C00023624FF48053E1616362A162AA60FFF776
:1015D0001DFF2046294603F031FE094C38B1012396
:1015E000237040F20360FFF7C5FE207838BD2070FD
:1015F000F7E700BFC4830120400100A0CC3C0020DD
:10160000400000200D4B10B5188070200C4B0D4C85
:1016100019802368984763687020984751280BD138
:10162000094B702008221C60084B1870084B1A7078
:10163000E3689847002010BD032010BD7A3D0020CC
:101640007C3D002000000020743D0020483D00202B
:10165000783D002010B54FF4005386B000240D48AB
:101660000193022301A9039404930B4B029300F00E
:10167000DDFF22460F21282000F03CF9282000F051
:1016800071F9064B064A1B6810789B6998472046FB
:1016900006B010BD0020024000001110743D002073
:1016A000483D002037B5164B02A90024054618789E
:1016B00041F8044DFEF786FE0198182817D009D886
:1016C00010280FD0142810D0B8B90446A8622046BC
:1016D00003B030BD40280CD049280CD01C280CD1B8
:1016E000042300E00123AB62F1E70223FBE70323BD
:1016F000F9E70523F7E70623F5E70124E7E700BF4D
:10170000483D00202DE9F04F524D95B00024524E37
:101710002B6881460594AA46069407941B69307885
:101720009847039689F8000070B109F1160509F190
:1017300002080EAF11AEDFF830B199F800309C42CC
:1017400005D34846FFF7AEFF15B0BDE8F08FDAF8D5
:1017500000303246039839465B69007898473F4B22
:101760000BA9DFF808C11A7808AB012A01BF388835
:1017700023F81400308821F81400900742BF3888FD
:10178000C0F5805023F81400500742BF3088C0F5E0
:10179000805021F81400120742BF3A8821F8142023
:1017A000328831F8141048BF23F81420A20033F80F
:1017B00014E05BF8243052F80C009E458CBFAEEB71
:1017C0000303A3EB0E0381429BB28CBF081A401A9D
:1017D00080B21844039B05281878C4BF4BF802E078
:1017E0004CF80210702816D1A8F800E0A8F80A10EA
:1017F00007AB05AA2146009306ABFEF7F3FD059B58
:1018000005F8013B069B6B72079B032B16D8DFE89C
:1018100003F0131B1D1F124B19885BF802304B435A
:101820001B0BA8F800300F4B19885CF802304B43B3
:101830001B0BA8F80A30DBE701232B71013408F1F8
:1018400002080237023678E70223F6E70323F4E7BB
:101850000023F2E7743D0020483D0020783D002041
:101860007A3D00207C3D00204C3D0020603D002062
:1018700070470000074A032008B5136843F400735B
:10188000136000F025F80F2010F0C4FFFFF7F0FF01
:10189000002008BD003C0240024A13680133136077
:1018A000704700BFF8830120014B1868704700BFE4
:1018B000F883012013B50190FFF7F6FF0446FFF708
:1018C000F3FF019B001B9842F9D302B010BD00004A
:1018D000074A0002D36800F4E06023F4E0631B04CD
:1018E0001B0C43F0BF6343F400330343D3607047E2
:1018F00000ED00E0194B30B5DC68C4F30224C4F1FC
:101900000703251D042B28BF0423062D4FF00105D6
:101910008CBF033C002405FA03F3002803F1FF33D6
:1019200001EA030101FA04F105FA04F404F1FF34B9
:1019300002EA040242EA01024FEA021205DA00F06A
:101940000F00D2B2064B1A5430BD00F16040D2B243
:1019500000F5614080F8002330BD00BF00ED00E0DD
:1019600014ED00E04209012300F01F0003FA00F02B
:10197000014B43F82200704700E100E0BFF35F8FA6
:10198000044A536A23F4803353620022024B5A60A4
:10199000704700BF00ED00E090ED00E0064A40F027
:1019A0000100064B5860536A43F480335362BFF31F
:1019B0004F8FBFF36F8F704700ED00E090ED00E0B8
:1019C0004378124A10B593600178D9B14368D36067
:1019D000C37A047B1B0643EA04730B43817A43EA10
:1019E000C143417B43EA8143817B43EA4143C17B5D
:1019F00043EA0143417A43EA0123017A43EA41037E
:101A0000136110BDD160116110BD00BF90ED00E009
:101A100003681821DAB223F47F73103A23F003032A
:101A2000B2FBF1F20449032A895C88BF0433C16523
:101A30008365806D704700BF6ECF010870B50446A6
:101A4000FFF732FF0546002C72D00023226884F88D
:101A50003430022384F83530136823F00103136017
:101A600021680B68D8073BD40B68324D62681D4073
:101A7000A368A0691343E2681343226913436269B0
:101A80001343E26903431343226A1343626A042A3D
:101A900043EA050301BF266BE56A35432B43042A5D
:101AA0000B604B6923F0070343EA02030AD1A26AE1
:101AB000134300BB012A2FD001D3022A02D1E26ACC
:101AC000D2012DD44B612046FFF7A2FFE26D3F23E8
:101AD0009340836000200123606584F8353070BD39
:101AE000FFF7E2FE401B0528BAD9202303206365D7
:101AF00084F8350070BDB0F5005F15D1032AE1D838
:101B000001A050F822F000BF211B0008BF1A0008F6
:101B1000211B0008191B0008E26AB2F1C07FD1D175
:101B2000402301206365E3E7022AF9D9032AC5E7C8
:101B3000012070BD3F8010F038B50546F0B190F837
:101B40003540E4B2022C17D0036800241A6822F052
:101B500001021A6021221C605C609C60DC601C61D8
:101B60005A61FFF755FFEA6D3F23934083606C6530
:101B700085F8344085F83540204638BD012038BD11
:101B800070B50446856DFFF78FFE064694F8353034
:101B9000022B06D0802301206365002384F83430B3
:101BA00070BD23681A6822F016021A605A6922F082
:101BB00080025A61226C0AB9A26C1AB11A6822F02A
:101BC00008021A601A6822F001021A602368186875
:101BD00010F0010009D1E26D3F239340AB60012377
:101BE00084F8340084F8353070BDFFF75DFE801B4B
:101BF0000528EBD9202303206365002384F83500F2
:101C000084F8343070BD0000F0B50468224E656C75
:101C100096FAA6F6B6FA86F605F04045059FB3405B
:101C20003D432B4363644368E263B3F5403F30D1E7
:101C300086681EB1012E03D121F07F41A163F0BD62
:101C4000022E01F47F0301F47F45C8B207D1D90CFD
:101C5000AD0AC90241EA451141EAD001EEE7032E7F
:101C600001F07F420AD1DB0CED0A9B02D10F43EA5F
:101C7000451343EAD00343EAC131DFE7190D2D0BC9
:101C80000902130F41EA051141EA101141EA03313B
:101C9000D4E7E160F0BD00BF0000FF3F704710B522
:101CA000044630B390F8393003F0FF021BB980F8D6
:101CB0003820FFF7F3FF226802236168002084F8D0
:101CC0003930136823F440330B43A1681360536B1E
:101CD00023F007030B43E1685363136C23F47F5332
:101CE00023F03F030B4313640123E06384F839308E
:101CF00010BD012010BD73B590F838400546012C89
:101D00004FF002040FD080F839400126069C80F87D
:101D100038600094FFF778FF2A6800201368334387
:101D2000136002B070BD2046FBE7002373B501933A
:101D3000044603680D461B68DB0727D42368DA696D
:101D400096065CD5FFF7B0FD064623685A68D206B2
:101D500058D45A680192019A12F0290F5DD0019A65
:101D6000160703D5E26B42F00402E263019A95067E
:101D700003D5E26B42F00202E263019AD00703D579
:101D8000E26B42F00102E26329221BE0FFF78CFDC7
:101D9000064623685A689207D0D45A680192019A7D
:101DA00012F0210F17D0019A950603D5E26B42F08D
:101DB0000202E263019AD00703D5E26B42F001020E
:101DC000E26321229A600423012084F83930002341
:101DD00084F838301FE0691CDCD055B9E36B032070
:101DE00043F02003E363002384F8390084F838309B
:101DF00011E0FFF759FD801B8542CAD2EEE75B6A0E
:101E00009B069FD42368122200209A60012384F845
:101E1000380084F8393002B070BD691C96D0002DAE
:101E2000DCD0FFF741FD801B85428ED2D6E7000053
:101E300090F83830012B4FF00203F0B544D00F0179
:101E4000012280F83930C41980F838204FF440322C
:101E5000E66992FAA2F2B2FA82F3226A656A9A40BD
:101E600003683243093E012E0FD805F07F44224318
:101E7000A9B95C6A194921400A435A6282699A6188
:101E8000426A22F07F429A6218E04FF07F4494FA4F
:101E9000A4F4B4FA84F405FA04F42243B1B1DC6981
:101EA00007440E49012E01EA040142EA0102DA6107
:101EB000BA691A6102D825F07F451D62012380F8B6
:101EC0003930002380F838301846F0BD5C6A034989
:101ED00021400A435A6282699A61EFE7F0FFFC00F1
:101EE000002337B541F21804019303680546012029
:101EF0001A5942F480121A511B590193FFF7DAFC68
:101F00002B68019A1A5103B030BD000070B5044629
:101F100029B14FF40063C3604FF480438360E369E9
:101F20002268002BE068A368156808BF4FF4806141
:101F300043EA00032E4818BF0021284043F40073F1
:101F4000034301200B4313601568FFF7B3FC2368BC
:101F5000402201201D605A605D68FFF7ABFC2368DA
:101F600001205D6000259D60DD609A6922F0BE025F
:101F70001204120C42F080029A619E69FFF79AFCEB
:101F8000236801209E61DD61DD69FFF793FC226813
:101F90000120184BD56141F2180551590B4043F00F
:101FA000087343F0040353515659FFF783FC236829
:101FB0000120114A5E5103F580531A601D68FFF736
:101FC00079FC226802F580531D60A369012B07D1BB
:101FD00041F21C01535843F4803343F04003535003
:101FE0006369064A998811601A68054B1A6070BDCA
:101FF0000F8120FF233FDEF88020C1024080024095
:1020000044800240F0B590F84540012C4FF00204A6
:1020100033D0012580F844404FF4801701F12004AB
:1020200080F8455040F2F45E002503F1FF3CC162A8
:102030009D420BD1026841F21003D150012380F878
:102040004430002380F845301846F0BD0EFB0526CD
:1020500044F8207C44F8186CC6692EB954F8206CFA
:1020600046F4400644F8206C65452CBF0E462646D3
:102070000135203444F8346CDAE72046F0BD2DE910
:10208000F04190F84540012C4FF0020430D001257A
:1020900080F844404FF0004601F1200480F845509C
:1020A00044F2F457002540F2F45E03F1FF3C8162F4
:1020B0009D420CD1026841F20C03D150012380F8FB
:1020C0004430002380F845301846BDE8F0810EFB0F
:1020D000052844F8206C44F8188C65452CBF8846C8
:1020E000A04644F81C7C013544F8148C2034DFE70A
:1020F0002046BDE8F081000090F84530012B4FF0FC
:102100000203F0B566D0012280F8443080F8452003
:1021100029B980F8442080F845101046F0BDC36A04
:102120001C68002C06DA122380F84430002380F863
:102130004530F2E740F2F454A1422CD9B1FBF4F25D
:1021400004FB12142CB30132234C01F2F45140F27F
:10215000F456571E04FB02110024C1F30C011D6844
:1021600025F040551D601CB91D6845F080551D6067
:10217000A7425E6004D11D68596045F000551D609E
:102180001D68013445F0004594421D60DB68E6D1CE
:102190000DE0012AD8D11A68C1F30C0142F0405277
:1021A00059601A601A6842F000421A60DB68C36224
:1021B00041F2140203689958490705D50421995042
:1021C000002141F204029950012380F84430002399
:1021D00080F845301846F0BD0CFAFFFF90F8453006
:1021E000012B4FF0020330B53BD00122052480F8CB
:1021F0004430114680F84520836A1A68002A01DBC2
:10220000013C06D10123002280F8443080F84520AB
:1022100027E01A68DD6802F44072B2F5007F03D14E
:10222000036381638562E7E71A6812F4407F826B7B
:1022300002D101328263F5E701324363012A8263EE
:1022400008BF03631B68C3F30D43043BC363036B05
:102250009B6885620364012380F84430002380F882
:102260004530184630BD7047704770B5026841F27E
:1022700014060446955915F0400521D00FF050F989
:10228000236840229A51012384F84430002384F8C3
:102290004530236841F214054FF480325A515B599E
:1022A0001B040CD52046FFF7DFFF23684FF40042E4
:1022B0005A51012384F84430002384F8453070BD1E
:1022C0009359DA07E5D5FFF7CEFF01232268935132
:1022D00084F8443084F84550DBE7F8B590F8443092
:1022E00005461646822B30D002688223890180F889
:1022F0004430136901F4F86403F01C012143048A9B
:10230000E402A4B20C4344F001041461FFF7CCFAD8
:10231000074614F0010007D12B685B699BB233605C
:10232000012385F84430F8BDFFF7BEFAC01BB0F5B5
:10233000803F07D30123032085F84430002385F82C
:102340004530F8BD2B681C69E3E70220F8BD90F822
:102350004430422B70B505462ED042238C0192B2F8
:1023600080F8443004F4F864036844F00304186906
:1023700000F01C0020432C8A5A61E402A4B20443FA
:102380001C61FFF791FA064614F0010003D1012306
:1023900085F8443070BDFFF787FA801BB0F5803FA9
:1023A00007D30123032085F84430002385F8453006
:1023B00070BD2B681C69E7E7022070BD0023F7B5EC
:1023C00004460093002800F0DD8090F8443003F0CC
:1023D000FF021BB980F845200FF034F86A4B5A6CA5
:1023E00042F480425A645B6C03F480430193019B86
:1023F000664B5A6822F400025A605A68216A0A43FE
:102400005A60236803F580531A6842F001021A608B
:10241000FFF74AFA0546236803F580521268D00791
:102420001DD41D6901F0D8FC594B5A4A25F01C05F2
:102430000344934222D845F0080523684FF4004234
:10244000002120461D61FFF782FF054668B3012584
:1024500001212046FFF75AFD84F844500BE0FFF7B6
:1024600023FA401BB0F5FA7FD5D90325002384F861
:10247000445084F84530284603B0F0BD464B474AE7
:102480000344934202D845F00C05D6E7444B454A35
:1024900003449342D1D9444B444A0344934294BFEA
:1024A00045F0040545F01005C7E740F6FF70FFF75B
:1024B00001FA6368002B53D0FFF7F6F941F2883731
:1024C00006466A4601212046FFF707FFFFF7ECF9B1
:1024D000801BB8420BD901212046FFF717FD0123CD
:1024E000032584F84430002384F84530C3E7009B7B
:1024F0005907E6D54FF4805200212046FFF727FF09
:102500000028A4D1FFF7D0F941F2883706466A4681
:1025100001212046FFF7E1FEFFF7C6F9801BB84214
:10252000D9D8009B9A06F2D56A461F212046FFF7AC
:10253000D4FE00288BD1009B13F0100218BF4FF47B
:1025400000625B074CBF00234FF48043E260A3604E
:1025500000212046FFF7DAFC012384F844308AE7A3
:10256000A3682946E26820465B0843EAD20292B299
:10257000FFF7EDFE00287FF46AAF40F6FF70FFF72B
:1025800099F9E5E7012576E7003802400038014077
:1025900000D3CEFEBFE1E40040F1E9FD3F787D01CC
:1025A00000796CFCFF596202001F0AFA7FF0FA0200
:1025B00090F84530012B73B505464FF0020033D03B
:1025C00000242B6885F84400012601941A683046DF
:1025D00085F8456042F008021A601B680193FFF716
:1025E00069F9019A30462B681A6000941A6842F023
:1025F00004021A601B680093FFF75CF92B682846F9
:10260000009A1A60FFF76CFC2A6841F21803204612
:10261000D15841F40051D150D15841F00201D1506C
:1026200085F8446085F8454002B070BD2DE9F04F53
:102630000B6885B0DFF8C081019300236C4ADFF896
:10264000BC914FF0010E019C0EFA03FE0EEA040647
:10265000B64540F0B3804C6824F01007022F16D125
:102660004FEAD30A03F0070B4FF00F0C00EB8A0A76
:102670004FEA8B0BDAF820500CFA0BFC25EA0C0C15
:102680000D6905FA0BF545EA0C05CAF820504FEA2A
:10269000430A0325D0F800B004F0030C05FA0AF54C
:1026A000013F0CFA0AFCED43012F0BEA050B4CEA43
:1026B0000B0CC0F800C011D8876807EA050BCF687B
:1026C00007FA0AFC4CEA0B078760476827EA0E0EF8
:1026D000C4F300179F4047EA0E074760C7683D40B4
:1026E0008F6807FA0AF73D43C560E50066D5D8F85C
:1026F000445023F0030703F0030E4FF00F0C45F492
:10270000804507F180474FEA8E0EC8F8445007F520
:102710009C37D8F8445005F480450395039D0CFA86
:102720000EF5D7F808A02AEA050C324DA8424CD085
:1027300005F58065A8424AD005F58065A84248D0D5
:1027400005F58065A84246D005F58065A84244D0CD
:10275000484544D005F50065A84242D005F580659E
:10276000A84240D005F58065A8423ED005F58065B9
:10277000A84214BF0A25092505FA0EF514F4803F76
:1027800045EA0C05BD606FEA060715680CBF3D40C1
:10279000354314F4003F156055680CBF3D40354388
:1027A00014F4801F556095680CBF3D403543A4026A
:1027B0009560D56854BF3D403543D5600133102B3B
:1027C0007FF43FAF05B0BDE8F08F0025D4E70125C9
:1027D000D2E70225D0E70325CEE70425CCE705257F
:1027E000CAE70625C8E70725C6E70825C4E700BFEE
:1027F000003C01400000024000380240001402404A
:102800002DE9F04F00244C4EDFF834A1DFF834B14D
:102810004FF0010909FA04F232EA010374D10323EB
:1028200004FA09F5076804F0070E03FA05F524FA1F
:1028300003FC4FEA8E0ED243ED4300EB8C0C2F408D
:1028400007600F27DCF8208007FA0EFE28EA0E0E3C
:10285000CCF820E0D0F808E005EA0E0EC0F808E059
:10286000D0F804E002EA0E0EC0F804E0D0F80CE064
:1028700005EA0E0504EA030E304BC56024F003059B
:102880004FEA8E0E984205F1804507FA0EF705F5DE
:102890009C35D5F808C00CEA070C3AD003F58063E4
:1028A000984238D003F58063984236D003F58063B0
:1028B000984234D003F58063984232D003F58063A8
:1028C000984230D0504530D0584530D003F5406361
:1028D00098422ED003F5806398420CBF09230A2347
:1028E00003FA0EF39C450FD1AB6823EA0707AF60EC
:1028F000336813403360736813407360B3681340E8
:10290000B360F3681A40F2600134102C80D1BDE846
:10291000F08F0023E4E74B46E2E70223E0E70323DE
:10292000DEE70423DCE70523DAE70623D8E70723FD
:10293000D6E70823D4E700BF003C01400000024076
:1029400000180240001C02400369194214BF012014
:10295000002070470AB1816170470904FBE700005D
:1029600008B5044B5969014202D058610FF068FA6A
:1029700008BD00BF003C014003689A69910701D57A
:1029800000229A629A69D20703D49A6942F001023E
:102990009A61704730B50568C1F30901039C686806
:1029A000234320F07F70194320F4593041EA02415B
:1029B00020F47F7020F003000143696030BD2DE9F1
:1029C000F041069F0446884616461D4622689369D4
:1029D00038EA03030CBF01230023B34202D00020D6
:1029E000BDE8F0816B1CF2D055B92023032084F898
:1029F0004130002384F8423084F84030BDE8F08153
:102A0000FEF752FFC01B8542E0D2EEE7036870B5C7
:102A1000044698690D46164610F0100012D170BD9C
:102A2000691C10D04DB92023032084F841300023C5
:102A300084F8423084F8403070BDFEF735FF801BCB
:102A40008542F0D3236899698A06E9D510222025AA
:102A50002046DA61DD61FFF78FFF226801205368AD
:102A600023F0FF7323F48B3323F4FF7323F001036C
:102A7000536004236364002384F8415084F8403099
:102A800084F8423070BD70B504460D461646236882
:102A90009B699B0701D5002070BD32462946204620
:102AA000FFF7B4FFB0B96A1CF1D06DB9636C0320B5
:102AB00043F020036364202384F84130002384F82A
:102AC000423084F8403070BDFEF7EEFE801B854238
:102AD000DDD2EBE7012070BDF7B51F464FF4005380
:102AE0000446099E009315464FF08073FAB2FFF733
:102AF00051FF324608992046FFF7C5FF28B1636CA5
:102B0000042B10D1012003B0F0BD012F23680CD19C
:102B1000EDB20022802120469D62089B0096FFF7BF
:102B20004EFF0028EFD00320EDE72A0A089920463F
:102B30009A623246FFF7A7FF0028E0D12368E7E753
:102B4000F7B51F464FF400530446099E00931546FF
:102B50000023FAB2FFF71EFF324608992046FFF71E
:102B600092FF28B1636C042B10D1012003B0F0BD9B
:102B7000012F23680CD1EDB20022402120469D6236
:102B8000089B0096FFF71BFF0028EFD00320EDE71E
:102B90002A0A089920469A623246FFF774FF0028F5
:102BA000E0D12368E7E770B504460D461646236872
:102BB0009B699B0601D5002070BD32462946204600
:102BC000FFF724FFA0B96DB9636C032043F0200325
:102BD0006364202384F84130002384F8423084F871
:102BE000403070BDFEF760FE801B8542DFD2EBE710
:102BF000012070BD704710B5044600284AD090F8F7
:102C0000413003F0FF021BB980F84020FFF7F2FFCC
:102C10002423E16884F84130012923681A6822F0EE
:102C200001021A60626822F070621A619A6822F4E6
:102C300000429A60A26824D142F400429A605A6825
:102C40000020616942F0007242F400425A60DA6882
:102C500022F40042DA6022690A43A16942EA0122B1
:102C6000216ADA60E2690A431A601A6842F00102D6
:102C70001A602023606484F84130206384F84200A5
:102C800010BD42F4044202299A60D8D14FF4006288
:102C90005A60D4E7012010BD704710B5044698B1C2
:102CA0000268242380F84130136823F00103136085
:102CB000FFF7F2FF0020606484F8400084F84100D0
:102CC000206384F8420010BD012010BD2DE9F04FB3
:102CD0009B4690F8413085B00446202B0F46039266
:102CE000BDF83CA0DDF8409040F0A6800E9B1BB9DB
:102CF000012005B0BDE8F08FBAF1000FF8D090F8D0
:102D00004030012B00F09880012580F84050FEF7FC
:102D1000CBFD1923009006462A464FF40041204679
:102D2000FFF74DFE8046D0B92123606301963946F6
:102D300084F841304023CDF8009084F842300E9B57
:102D40006064204663625B46A4F82AA0039AFFF7FA
:102D5000C3FE30B1636C84F84080042BC8D00320DC
:102D6000C7E7638D9BB2FF2B10D9FF224FF0807312
:102D70000090228539462046FFF70CFE3246494630
:102D80002046FFF780FE48B1636CE6E7628D4FF0A6
:102D90000073009092B22285D2B2EBE7636A226898
:102DA000591C61621B789362228D638D013A013B4D
:102DB00092B29BB222856385BAB9638D9BB2A3B1EF
:102DC00000964B4680212046FFF7F9FD0028C6D12A
:102DD000638D9BB2FF2B27D9FF224FF080730090A9
:102DE000228539462046FFF7D5FD638D9BB2002B27
:102DF000C4D1324649462046FFF7D5FE0028C3D14C
:102E000023682021D9615A6822F0FF7222F48B32A4
:102E100022F4FF7222F001025A6084F8411084F813
:102E2000400084F8420064E7628D4FF00073009028
:102E300092B22285D2B2D4E702205AE72DE9F04FB0
:102E40009B4690F8413085B00446202B0F460392F4
:102E5000BDF83CA0DDF8409040F0AC800E9B1BB963
:102E6000012005B0BDE8F08FBAF1000FF8D090F85E
:102E70004030012B00F09E80012580F84050FEF785
:102E800013FD1923009006462A464FF400412046C0
:102E9000FFF795FD8046D0B922236063019639463D
:102EA00084F841304023CDF8009084F842300E9BE6
:102EB0006064204663625B46A4F82AA0039AFFF789
:102EC0003FFE30B1636C84F84080042BC8D00320EF
:102ED000C7E7638D9BB2FF2B46D94FF41053FF22F7
:102EE00000934FF08073228539462046FFF752FD4C
:102EF00000964B46002204212046FFF760FD002883
:102F0000E5D1636A5A1C62622268526A1A70228D85
:102F1000638D013A013B92B29BB222856385BAB9B7
:102F2000638D9BB2A3B100964B4680212046FFF7EC
:102F300046FD0028CBD1638D9BB2FF2B1ED9FF220B
:102F40004FF080730090228539462046FFF722FD1E
:102F5000638D9BB2002BCBD1324649462046FFF70A
:102F600022FE98B1636CB0E7628D4FF4105392B2B9
:102F700000934FF000732285D2B2B5E7628D4FF017
:102F80000073009092B22285D2B2DDE7236820213F
:102F9000D9615A6822F0FF7222F48B3222F4FF7258
:102FA00022F001025A6084F8411084F8400084F84D
:102FB000420056E7022054E790F841007047D201E2
:102FC0004FF0000C2DE9F043843204684F68A318D9
:102FD000E568D1F800E05868C5F30B450EF101062D
:102FE000D1F8189000F470403D445860E068C0F398
:102FF0000B40304440EA0540CD685860E068C0F3BB
:103000000A000544986800F4704098608868E66893
:103010000130C6F30A0630440E6940EA0540986064
:10302000186920F0070018611E619D6991F832004F
:1030300091F83180C3F818C091F8305045EA09651D
:1030400045EA082545EA00459D61586920F0FF00E2
:10305000586148695861D86920F4E06020F00700A1
:10306000D861086ACD690543DD61986A486AC3F88A
:1030700028C098621EB3012E23D0B01E022822D988
:10308000072E0CBF02200120DD6AA7EB0E0705F01A
:10309000E025DD628D6AC96A45437843033040EA22
:1030A0000540D862186B20F4FF6020F00700186319
:1030B0001963A35843F00103A350BDE8F083042033
:1030C000E2E70320E0E70220DEE7704738B5044678
:1030D000002867D090F8A13003F0FF021BB980F8F8
:1030E000A020FFF7F2FF0223A06884F8A130236834
:1030F0009A6922F070429A61626899690243E068B5
:1031000002432069024360690A4327499A619A6829
:103110000A409A609A6842EA0042A0690243E06964
:103120009A60DA680A40DA60DA6842EA0042206AA5
:103130000243606ADA601A690A401A611A6942EA4F
:103140000042A06A02431A615A6911405961E16A5A
:103150005A6942EA0142216B0A435A61D96A94F8DA
:10316000360001F07F4194F83550D962D96A94F85D
:1031700034200A4342EA052242EA00420020DA6291
:103180005A6B42F004025A635A6B42F002025A63CD
:103190009A6942F001029A610123C4F8A40084F8FC
:1031A000A13038BD012038BD00F800F0F8B590F826
:1031B000A03006468E469446012B4FF002001DD0EB
:1031C00034240D4686F8A100012704FB026486F82A
:1031D000A07038340FCD0FC40FCD0FC40FCD0FC466
:1031E0002B683046624671462360FFF7E8FE33687D
:1031F00000205F6286F8A17086F8A000F8BD90F804
:10320000A1007047024A136843F48073136070474B
:1032100000700040194B37B51A6C194C42F08052BF
:103220001A641B6C03F080530193019B236843F4E1
:1032300080332360FEF738FB05466368DA030CD55C
:10324000236843F400332360FEF72EFB0C4C054645
:1032500063689B030AD5002006E0FEF725FB401BB0
:10326000B0F57A7FE9D9032003B030BDFEF71CFB2F
:10327000401BB0F57A7FEBD9F5E700BF003802407C
:10328000007000402DE9F0430446486A30B1B2F1C5
:10329000406F03D08B6A2568013B2B6101F1180355
:1032A00093E80803002B4FD024680343D1F82CC0C7
:1032B000D1F830E04F6B0E684D69B9F1000F23D0A3
:1032C00088681343E06143EA09030869B8F1000F15
:1032D0000ED043EA080343EA0C0343EA0E033B43E0
:1032E0000343C8680343334343EA854363611DE0F6
:1032F00043EA0C0343EA0E033B430343334343EAED
:1033000085436361BDE8F083B8F1000F15D043EA4F
:103310000200CB6840EA080040EA0C0040EA0E00D8
:1033200038431843304340EA85406061B2F1406F52
:10333000E8D04B68A361BDE8F083134343EA0C0374
:1033400043EA0E033B43D9E7B9F1000F1AD08B686B
:103350002468D1F82CC0E36140EA0903D1F830E0D9
:103360004F6B13430E694D69B8F1000FE6D043EA85
:10337000080040EA0C03C86843EA0E033B433343AA
:103380000343B1E7B8F1000F0FD040EA0803C86A61
:10339000246813430343086B0343486B0343C86823
:1033A0000343486943EA8043A0E70028AAD0CB6AD8
:1033B0002468034313430A6B13434A6B13434A695C
:1033C00043EA82439DE72DE9F041069D04460F46FE
:1033D0001646984621688A683A4214BF01220022A4
:1033E000B24202D10020BDE8F0816B1CF3D04DB990
:1033F0000423012084F84130636C43F001036364CB
:10340000BDE8F081FEF750FAA0EB08008542E1D25A
:10341000EEE7704737B50446FEF746FA0546002C3E
:103420004DD094F84030012B4BD0012384F840302C
:1034300094F8412002F0FF033AB984F84030204666
:10344000FFF7E7FF41F28833A3642068A1680268B0
:103450000139A36C22F4F85242EA012220210260D1
:103460000022009320462B46FFF7ADFF10BB2268D9
:10347000E569E36811682B43256A21F07F412B43FE
:10348000656821F0D00143EA05630B43A16913602D
:10349000636955680B43216943EA01430A4929409E
:1034A0000B435360136843F001031360012360640E
:1034B00084F84130002384F8403003B030BD01204F
:1034C000FBE70220F9E700BFFEF8E0FF704710B508
:1034D0000446A0B190F84030012B12D002680123BD
:1034E00080F84030136823F001031360FFF7EEFF0C
:1034F0000020606484F8410084F8400010BD012081
:1035000010BD022010BD2DE9F34704468A469146BE
:10351000FEF7CAF994F840308046012B34D00123DD
:10352000022784F8403094F84160F6B29E4229D1D7
:1035300000220346CDF8009020216264204684F8E2
:103540004170FFF740FF0546A8B9024651462046A4
:10355000FFF798FEDAF824305BB9CDF800904346C7
:10356000324639462046FFF72EFF054618B9236834
:10357000DF6084F84160002384F84030284602B0C0
:10358000BDE8F0873D46F6E70225F7E72DE9F7436A
:103590000446984689461646FEF786F994F8403068
:1035A0000746012B42D0012384F8403094F8415063
:1035B000EDB29D4238D142230022CDF80080202177
:1035C000626484F8413003462046FFF7FCFE28BBC6
:1035D0002368204632689A6272685A62B268DA6278
:1035E0003269196842F4800221F440010A434946D5
:1035F0001A604FF00062F368C9F82830FFF742FE06
:10360000CDF800803B462A4608212046FFF7DBFE26
:1036100020B923680822DA6084F84150002384F836
:10362000403003B0BDE8F0830220F7E70220F8E75E
:10363000F7B5044617460E46FEF736F994F84020D3
:103640000346012A33D0012284F8402094F8412017
:10365000012A2AD1002282212046626484F8411086
:10366000A16C00912021FFF7AEFE0546B8B9236892
:1036700079681A68082922F0080242EA01021A60F1
:1036800007D13A681A631022DA601A6842F480128D
:103690001A604FF0406231462046FFF7F3FD0023E9
:1036A00084F84030284603B0F0BD0225F7E7022534
:1036B000F8E737B50446FEF7F7F8054694F84100F9
:1036C00010F002002FD0002384F8403023681A68DD
:1036D00052070BD51A68E06B22F004021A60FEF75D
:1036E0004FFA18B1636C43F004036364226802214B
:1036F0002046136843F0020313600122A36C009379
:103700002B46FFF760FE70B9236802222021DA60A1
:103710000246A36C204600932B46FFF754FE10B9D7
:10372000012384F8413003B030BD2DE9F341044654
:1037300088461746FEF7B8F894F840300646012B45
:103740004FD00123256884F8403094F84100C0B27E
:10375000984244D100236364B8F1000F3AD0122399
:1037600084F841302B690133E3622B69C4F824806B
:103770000133A3626B6923F040636B61E36AB3B901
:1037800000973346012202212046FFF71CFE28B98C
:10379000236802222046DA60FFF78BFF012384F8BA
:1037A0004130002384F8403002B0BDE8F08100973A
:1037B0003346012204212046FFF705FE0028EDD103
:1037C000636A5A1C62621B7885F82030E36A013B09
:1037D000E362D3E7636C43F008036364E1E702202C
:1037E000DFE70220E0E72DE9F3410446174688466B
:1037F000FEF75AF825680646AA6994F84030012B6E
:1038000051D0012384F8403094F84100C0B298426E
:1038100047D100236364B8F1000F3DD0222384F820
:1038200041302B690133A3632B69C4F83080013325
:1038300063636B6923F0406343F080636B61AA614B
:10384000A36BB3B900973346012202212046FFF74C
:10385000BAFD28B9236802222046DA60FFF729FF63
:10386000012384F84130002384F8403002B0BDE8E1
:10387000F08100973346012206212046FFF7A3FD81
:103880000028EDD1236B5A1C226395F820201A7072
:10389000A36B013BA363D3E7636C43F0080363644A
:1038A000E1E70220DFE70220E0E7000003682DE9FE
:1038B000F3410446D80710D42368990761D42368DC
:1038C000190700F1B08023685A0700F1D180A2697E
:1038D000002A40F03B81002015E09A4B9A6802F0E4
:1038E0000C02042A07D09A6802F00C02082A0DD1B3
:1038F0005B685A020AD5934B1B689B03DCD563684F
:10390000002BD9D1012002B0BDE8F08163688D4D54
:10391000B3F5803F11D12B6843F480332B60FDF762
:10392000C3FF884D06462B689F03C5D4FDF7BCFF37
:10393000801B6428F7D90320E5E79BB92B6823F4A3
:1039400080332B602B6823F480232B60FDF7ACFFC2
:1039500006462B689803AFD5FDF7A6FF801B6428A9
:10396000F7D9E8E7B3F5A02F2B6803D143F4802300
:103970002B60D0E723F480332B602B6823F4802363
:10398000CCE7704B9A6812F00C0F07D09A6802F0DF
:103990000C02082A16D15B68590213D4694B1A68C5
:1039A000920702D5E268012AACD11868F82292FA8F
:1039B000A2F2B2FA82F122698A4020F0F8010A43A9
:1039C0001A607CE7E3685F4DE3B12B6843F00103C5
:1039D0002B60FDF769FF06462B689F070CD5296809
:1039E000F82393FAA3F3B3FA83F22369934021F007
:1039F000F80213432B6062E7FDF756FF801B022895
:103A0000EAD998E72B6823F001032B60FDF74CFF00
:103A100006462B6898077FF552AFFDF745FF801BE0
:103A20000228F6D987E76369464D83B16B6F43F08F
:103A300001036B67FDF738FF06466B6F9B073FF589
:103A400042AFFDF731FF801B0228F6D973E76B6F99
:103A500023F001036B67FDF727FF06466B6F9F0797
:103A60007FF531AFFDF720FF801B0228F6D962E712
:103A7000344B1A6CD00027D41A6C012642F08052C5
:103A80001A641B6C03F080530193019B2E4D2B682D
:103A9000D9051BD5A3682B4D012B27D12B6F43F0E4
:103AA00001032B6741F28835FDF7FEFE254F804666
:103AB0003B6F9B073FD5002E3FF409AF214A136CA3
:103AC00023F08053136402E70026DFE72B6843F4FA
:103AD00080732B60FDF7E8FE07462B68DA05D9D422
:103AE000FDF7E2FEC01B6428F7D924E7ABB92B6FC2
:103AF00041F2883823F001032B672B6F23F0040376
:103B00002B67FDF7D1FE07462B6F9807D3D5FDF73E
:103B1000CBFEC01B4045F7D90DE7052B2B6F03D11A
:103B200043F004032B67B9E723F001032B672B6FE6
:103B300023F00403B5E7FDF7B7FEA0EB0800A842A9
:103B4000B6D9F8E600380240007000402E4DAB6850
:103B500003F00C03082B3FF4D5AE2B68022A23F0A8
:103B600080732B6042D1FDF79FFE06462B689901BA
:103B700036D447F6C07696FAA6F64FF44032B6FA37
:103B800086F692FAA2F24FF07061B2FA82F091FAE0
:103B9000A1F1226AB1FA81F1E3691343626A02FA80
:103BA00006F6A26A43F0005352083343013A8240BA
:103BB0001343E26A144C02FA01F10B436B602B6869
:103BC00043F080732B60FDF76FFE054623689A0172
:103BD0003FF581AEFDF768FE401B0228F6D9AAE644
:103BE000FDF762FE801B0228C0D9A4E6FDF75CFE4B
:103BF00004462B689B017FF56EAEFDF755FE001B5A
:103C00000228F6D997E600BF00380240194A9368A7
:103C100003F00C03042B10B503D0082B03D0164877
:103C200010BD164810BD516847F6C074536801F0C6
:103C30003F0113F4800F536894FAA4F0B0FA80F0B7
:103C400003EA04034FF4403223FA00F314BF0B4895
:103C50000948B0FBF1F05843064B5B6892FAA2F2B8
:103C6000B2FA82F203F44033D34001335B00B0FB7D
:103C7000F3F010BD003802400024F40040787D01CC
:103C8000514A136803F00F038B422DE9F0410446BB
:103C90000D462FD32268960739D4D0073FD44A4A1D
:103CA000136803F00F039D427BD32268510700F194
:103CB0008380130707D5454A2169936823F460433D
:103CC00043EAC1039360FFF7A1FF404BF0229B68DA
:103CD00092FAA2F2B2FA82F203F0F003D3403C4A25
:103CE000D35CD8403B4B18600F200EF093FD0020B2
:103CF000BDE8F081136823F00F030B4313601368D2
:103D000003F00F039942C5D00120BDE8F0812F498F
:103D1000A0688B6823F0F00303438B60BDE7616804
:103D20002A4B01291A681DD112F4003FECD09A6881
:103D300041F28838254F22F003020A439A60FDF7CA
:103D4000B3FD63680646012B14D1BB6803F00C0376
:103D5000042BA4D0FDF7A8FD801B4045F5D9032016
:103D6000BDE8F081022902D112F0007FDEE712F0F7
:103D7000020FDBE7022B0FD1BB6803F00C03082B0B
:103D80008DD0FDF791FD801B4045F5D9E7E7FDF7A4
:103D90008BFD801B4045E2D8BB6813F00C0FF6D1B9
:103DA0007DE7136823F00F032B431360136803F0C0
:103DB0000F039D42A8D178E70449E0688B6823F49B
:103DC000E05303438B6074E7003C0240003802403C
:103DD00044DE010850000020014B1868704700BF06
:103DE00050000020084B4FF4E0529B6892FAA2F278
:103DF000B2FA82F203F4E053D340044AD35C044A9B
:103E00001068D840704700BF0038024054DE0108F7
:103E100050000020084B4FF460429B6892FAA2F2D7
:103E2000B2FA82F203F46043D340044AD35C044AFA
:103E30001068D840704700BF0038024054DE0108C7
:103E4000500000200F2303600B4B9A6802F003021E
:103E500042609A6802F0F00282609A6802F4E052CE
:103E6000C2609B68DB0803F4E0530361034B1B68EB
:103E700003F00F030B60704700380240003C024023
:103E800003682DE9F34713F0010604460BD0BD4A41
:103E9000916821F400019160466B91683143B6FA54
:103EA00086F67609916013F4002512D0B549E56BCA
:103EB000D1F88C20B5F5801F22F4401208BF0126EE
:103EC00042EA050216BFB5FA85F500256D09C1F86D
:103ED0008C20D90210D5AB48216CD0F88C20B1F5DC
:103EE000800F22F4400242EA0102C0F88C2000F068
:103EF0000082002908BF012513F0807F18BF01262A
:103F00009A0631D59F4BA04F1A6C42F080521A642A
:103F10001B6C03F080530193019B3B6843F4807357
:103F20003B60FDF7C1FC80463B68DB0540F1E38167
:103F3000944F3B6F13F4407340F0E881236B03F41C
:103F40004072B2F5407F8F4A40F00682916823F0BC
:103F5000704021F4F81120F4407001439160C3F3E4
:103F60000B03116F0B4313672368DA060CD5854AE0
:103F7000D2F88C1021F08071C2F88C10D2F88C101D
:103F8000A06B0143C2F88C105F0408D57D49606EB8
:103F9000D1F8902022F440320243C1F89020180456
:103FA00008D57849A06ED1F8902022F4402202432F
:103FB000C1F89020D90308D57249E06ED1F890205D
:103FC00022F440120243C1F890209A0308D56D49AB
:103FD000206FD1F8902022F440020243C1F89020D3
:103FE0005F0608D56749606CD1F8902022F0030283
:103FF0000243C1F89020180608D56249A06CD1F898
:10400000902022F00C020243C1F89020D90508D577
:104010005C49E06CD1F8902022F030020243C1F8F4
:1040200090209A0508D55749206DD1F8902022F0AC
:10403000C0020243C1F890205F0508D55149606D68
:10404000D1F8902022F440720243C1F89020180564
:1040500008D54C49A06DD1F8902022F4406202436B
:10406000C1F89020D90408D54649E06DD1F89020D8
:1040700022F440520243C1F890209A0408D54149E5
:10408000206ED1F8902022F440420243C1F89020E3
:104090005F0208D53B49A06FD1F8902022F08062E2
:1040A0000243C1F8902098020CD53648E16FD0F851
:1040B0009020B1F1006F22F0006208BF01250A4391
:1040C000C0F8902013F0080F18BF0125590308D538
:1040D0002C49606FD1F8902022F040720243C1F861
:1040E00090201A0209D52749D4F88000D1F89020F1
:1040F00022F080520243C1F89020012E00F032815C
:10410000B3F1007F00F02E81012D40F0F0801D4DB5
:104110002B6823F080532B60FDF7C6FB06462B6807
:104120009F0000F13E8221680E0301D5E36B23B1AD
:10413000CD024CD5236C002B49D1124D4FF4403E9B
:10414000D5F888009EFAAEFC4FF0E046BCFA8CFC35
:10415000D5F8882096FAA6F747F6C073B7FA87F71E
:1041600093FAA3F3B3FA83F99EFAAEFE4FF07068A8
:10417000BEFA8EFE98FAA8F8B8FA88F896FAA6F66B
:10418000636903E0003802400070004000F44030F2
:1041900002F0E042B6FA86F603FA09F9A36920FABA
:1041A0000CF0FA4003FA08F800FA0EF0B24049EABF
:1041B000080303431343C5F88830D5F88C30A26A4E
:1041C00023F4F853013A43EA0223C5F88C308802FD
:1041D0003ED5E36FB3F1006F3AD1614D4FF0706E91
:1041E000D5F888009EFAAEFC4FF0E046BCFA8CFC95
:1041F000D5F8882096FAA6F747F6C073B7FA87F77E
:1042000093FAA3F34FF44038B3FA83F998FAA8F875
:10421000B8FA88F89EFAAEFEBEFA8EFE96FAA6F6B8
:10422000636900F0706002F0E042B6FA86F603FAC5
:1042300009F9236A20FA0CF0FA4003FA08F800FAA8
:104240000EF0B24049EA080303431343C5F888302F
:104250000A0740D542484FF07065D0F8882095FA9B
:10426000A5F64FF4403EB6FA86F6D0F888109EFACE
:10427000AEF847F6C073B8FA88F893FAA3F3B3FA26
:1042800083F79EFAAEFEBEFA8EFE95FAA5F54FF0C4
:10429000E04CB5FA85F59CFAACFC6369BCFA8CFC81
:1042A00001F4403102F07062BB40E76921FA08F185
:1042B000F24007FA0CF701FA0EF1AA403B430B4318
:1042C0001343C0F88830D0F88C30E26A23F44033CE
:1042D0001343C0F88C30224C236843F08053236092
:1042E000FDF7E2FA054623689B0040F1618100205A
:1042F00009E0012600E6FDF7D7FAA0EB08006428E4
:104300007FF612AE032002B0BDE8F087226B02F404
:10431000407293423FF412AE3B6F3A6F23F4407306
:1043200042F480323A673A6F22F480323A673B6750
:104330003B6FD8077FF502AEFDF7B6FA41F2883938
:1043400080463B6F99073FF5F9ADFDF7ADFAA0EB5D
:1043500008004845F5D9D5E7916821F4F811FDE545
:1043600000380240964E336823F080633360FDF7D7
:104370009BFA074633681B0100F10C812268D707BE
:104380003CD5636BD3BBD6F884004FF4403C9CFA19
:10439000ACF84FF07067B8FA88F8D6F8841097FA3E
:1043A000A7FE47F6C073BEFA8EFE93FAA3F3B3FAE4
:1043B00083FA9CFAACFCBCFA8CFC97FAA7F74FF096
:1043C000E049B7FA87F799FAA9F96368B9FA89F960
:1043D00000F4403001F0706103FA0AFAA36820FA91
:1043E00008F021FA0EF103FA09F900FA0CF0B940CD
:1043F0004AEA090303430B43C6F88430160303D586
:10440000E36BB3F5801F05D0D00248D5236CB3F51C
:10441000800F44D16A4E4FF4403CD6F884009CFA99
:10442000ACF84FF0E047B8FA88F8D6F8841097FA5D
:10443000A7FE47F6C073BEFA8EFE93FAA3F3B3FA53
:1044400083FA9CFAACFC4FF07069BCFA8CFC99FAC8
:10445000A9F9B9FA89F997FAA7F7636800F4403027
:1044600001F0E041B7FA87F703FA0AFAE36820FAA5
:1044700008F021FA0EF103FA09F900FA0CF0B9403C
:104480004AEA090303430B43C6F88430D6F88C107C
:10449000636A21F01F01013B0B43C6F88C30D10148
:1044A0003BD5474E4FF0706CD6F884009CFAACF8C0
:1044B0004FF0E047B8FA88F8D6F8841097FAA7FECC
:1044C00047F6C073BEFA8EFE93FAA3F34FF4403959
:1044D000B3FA83FA99FAA9F9B9FA89F99CFAACFC0A
:1044E000BCFA8CFC97FAA7F7636800F0706001F0E3
:1044F000E041B7FA87F703FA0AFA236920FA08F0CD
:1045000021FA0EF103FA09F900FA0CF0B9404AEA6F
:10451000090303430B43C6F88430920128D547F6BC
:10452000C07393FAA3F34FF44030B3FA83F690FAD2
:10453000A0F04FF07061B0FA80F091FAA1F14FF065
:10454000E042B1FA81F192FAA2F26368B2FA82F221
:10455000B340266906FA00F00343E06800FA01F16F
:104560000B43A16801FA02F21343154AC2F88430E2
:10457000134E336843F080633360FDF795F90746C7
:1045800033681B013FF5C0ADFDF78EF9C01B6428F1
:10459000F6D9B7E6FDF788F9C01B64287FF6EAAEC6
:1045A000B0E6FDF781F9801B64287FF6B8ADA9E677
:1045B000FDF77AF9401B64287FF695AEA2E600BFAE
:1045C00000380240026838B5D368044623F0A003DF
:1045D000D360FDF769F905462368DB689B0601D5C2
:1045E000002038BDFDF760F9401BB0F57A7FF3D9A4
:1045F000032038BD38B503680446DA68520601D591
:10460000002038BD4FF0FF32DA60FDF74DF9054666
:104610002368DB685B06F3D4FDF746F9401BB0F571
:104620007A7FF5D9032038BD38B50446B0B1437F51
:1046300003F0FF0213B902770EF044F90223CA22F5
:104640002046637723685A6253225A62FFF7D2FFEB
:10465000236828B1FF225A6204236377012038BD02
:104660009A68256922F4E00222F040029A606268AA
:1046700099682A4365692A430A43A1689A60E268F7
:104680001A611A6942EA0142A1691A61DA6822F0E4
:104690008002DA60DA6C22F00802DA64DA6C0A432B
:1046A000DA64FF225A620123637738BD00230928A8
:1046B00003D840EA0310C0B270470A380133C0B2D1
:1046C000F5E7F8B5037F06460F460225012B2FD0EC
:1046D00001234577037703684D7808788C789B68C9
:1046E00042BB13F0400308BF0B73FFF7DFFF014627
:1046F0002846FFF7DBFF02462046FFF7D7FF3B7B4C
:1047000040EA034040EA014040EA02243368CA22FA
:1047100030465A6253225A62FFF76CFF33680546EF
:10472000A0B1FF225A620423737700233377012557
:104730002846F8BD2D0213F0400345EA004008BFAB
:104740000B7320430C7B40EA0444DFE704F07F3422
:10475000786924F0FE441C609A6822F480229A60F2
:104760003A69996802430A439A60DA6822F0800243
:10477000DA609B689B060AD43046FFF723FF30B10E
:104780003368FF225A62042335777377CFE73368A3
:10479000FF225A620123737700233377C8E7F8B505
:1047A000037F05460226012B30D00123467703778D
:1047B0004B78C8788E780C78002A48D1DA0603D571
:1047C00023F010030A334B70FFF770FF0746487859
:1047D000FFF76CFF02463046FFF768FF40EA4430BF
:1047E00040EA074040EA02242B68CA2228465A625F
:1047F00053225A62FFF7FEFE2B68064640B1FF22A5
:104800005A6204236B7700232B7701263046F8BDCC
:1048100024F07F4424F0C0045C60DA6822F0800257
:10482000DA609B689B060AD42846FFF7CBFE30B1BE
:104830002B68FF225A6204232E776B77E5E72B68FB
:10484000FF225A6201236B7700232B77DEE71B02DE
:1048500043EA0040304340EA4434C5E7030900F02E
:104860000F0003EB830300EB4300C0B27047036803
:10487000986A70B5486018691D68C0F30E0005F0AD
:104880007F3305F07F05886023F0FE438D701E0C9A
:10489000C3F3062406F03F0006F040064C70087093
:1048A0000E7352B9FFF7DAFF08702046FFF7D6FF04
:1048B00048702846FFF7D2FF8870002070BD38B5D9
:1048C00003685C6824F07F4304F03F0423F0C003D6
:1048D0008C70180CC3F30425C3F34233C8704D70B9
:1048E0000B7052B9FFF7BAFFC8702846FFF7B6FF42
:1048F00048702046FFF7B2FF8870002038BD03687B
:10490000503343F8212070470368503353F8210097
:10491000704700002DE9F047054688B00E46FCF7C9
:10492000C3FF00238146082128680093019301F00A
:1049300030FD044650BB296D2868090401F034FE9F
:10494000044618BB4FF48013069002A9286802930E
:104950000823039330230493022305930123079331
:1049600001F004FD286801F050FE044670B90746C6
:1049700040F22A48DFF86CA02868436B13EA080F5E
:10498000436B07D0190718D508248463204608B064
:10499000BDE8F0879B0207D501F028FC08AB03EBCC
:1049A0008703013743F8200CFCF77EFFA0EB0900DA
:1049B0005045E1D94FF00044E8E7436B9A0701D531
:1049C0000224E2E7436B9B0601D52024DDE740F299
:1049D000FF538363009B1BBA7360019B1BBA336058
:1049E000D4E700BFFFFF0F0070472DE9F04F0D46E1
:1049F00087B0044691469846109EFCF755FF07463F
:104A00002DB9A36B43F00063A363012010E094F879
:104A10003400C0B2012840F0C18009EB0803E26D08
:104A200000219342A16306D9A36B43F00073A363F3
:104A300007B0BDE8F08F0323206884F83430636C3E
:104A4000C1624FF40071012B18BF4FEA492901F0F0
:104A5000A0FC50B1236840F2FF529A63A36B184345
:104A6000A063012084F83400E2E74FF480134FF094
:104A7000010A4FF0020B049000934FEA4823694665
:104A8000206801939023CDF80CB00293CDF814A0C8
:104A900001F06CFCD04525D9C4F830B049462068F7
:104AA00001F0A7FC0028D5D12068436B13F4957F53
:104AB000436B1ED0DB0509D5B8F1010F06D9636C35
:104AC000032B03D001F0DEFC0028C3D123685A6B0E
:104AD000100730D540F2FF529A63A36B43F00803EE
:104AE000A363BEE7C4F830A04946206801F069FC22
:104AF000D8E71A040BD5A5F1040905F11C0A2068B2
:104B000001F074FB49F8040FD145F8D1203566B99E
:104B1000236840F2FF5203209A63A36B43F00043E3
:104B2000A363012384F8343082E7FCF7BDFEC01B89
:104B30008642B9D8ECE75A6B910706D540F2FF528E
:104B40009A63A36B43F00203CAE75A6B920618D527
:104B500040F2FF529A63A36B43F02003C0E701F0D9
:104B600045FB45F8040B3EB9236840F2FF529A63B7
:104B7000A36B43F00043B3E7FCF796FEC01B8642ED
:104B8000F2D92068436B13F40013E8D140F2FF52CE
:104B900082630122184684F8342049E7A36B43F06E
:104BA000005331E72DE9F0430D4687B004469146A6
:104BB0001E460E9FFCF778FE80462DB9A36B43F08E
:104BC0000063A363012010E094F83400C0B2012810
:104BD00040F09D8009EB0603E26D00219342A16342
:104BE00006D9A36B43F00073A36307B0BDE8F0835D
:104BF0000323206884F83430636CC1624FF4007181
:104C0000012B18BF4FEA492901F0C3FB50B12368BB
:104C100040F2FF529A63A36B1843A063012084F80B
:104C20003400E2E7012E33D920234946206823636C
:104C300001F00FFC0028EAD14FF480130390049098
:104C40006946009373022068019390230293012325
:104C5000059301F08BFB2068436B13F48D7F436B4E
:104C60001DD0DD0508D5012E06D9636C032B03D0BA
:104C700001F008FC0028CAD123685A6B11072DD512
:104C800040F2FF529A63A36B43F00803A363C5E7A6
:104C9000102349462068236301F0C3FBCAE75B0485
:104CA00009D5A9462035494609F10409206801F0D3
:104CB000A0FA4D45F7D157B9236840F2FF520320BF
:104CC0009A63A36BA363012384F834308DE7FCF768
:104CD000EBFDA0EB08008742BDD8EDE75A6B9207C9
:104CE00006D540F2FF529A63A36B43F00203CDE76F
:104CF000586B40F2FF5210F010009A6303D0A36B80
:104D000043F01003C2E7012384F834306DE7A36B4E
:104D100043F0005355E7436E9A0F0A70C3F3836262
:104D20004A70C3F301628A70C3F30742CA70C3F3C7
:104D30000722DBB20A714B71836E1A0E1201CA8010
:104D4000CA8830B592B2C3F303542243CA80C3F376
:104D500003420A72C3F30722D4094C72C2F38014CF
:104D60008C72C2F34014CC72C2F300140C73002492
:104D70004C73446C002C40F0838092029B0002F440
:104D8000406203F47F730A610A691343C26E0B61C8
:104D90000B6943EA92730B61C2F3C2630B75C2F3F2
:104DA00002634B75C2F342538B75C2F38243CB75DA
:104DB000D30B03F006030B76C2F307230C7EC2F37A
:104DC000C03222430A760A690C7E01320234A240C4
:104DD000012442650D7AAC408465640A6243C26571
:104DE0004FF400720266C3F380125B004A7603F050
:104DF0007E038B76C36E8A7EC3F3C01403F07F03F9
:104E000022438A76CB76036FDA0FC3F381500A7799
:104E1000C3F341724A77C3F382628A779A0D02F034
:104E20000C02CA77CA7F02430020CA77C3F34052FC
:104E300081F82020C3F3004281F8210081F822206C
:104E4000C3F3C03281F82320C3F3803281F82420D9
:104E5000C3F3403281F82520C3F3003281F82620C5
:104E6000C3F3812281F82720C3F30122C3F3460351
:104E700081F8282081F82930012381F82A3030BDBB
:104E8000012C1AD11B0403F47C130B61C36E0A6955
:104E90001C0E42EA04220A61C3F307420C69C3F301
:104EA000072322430A610A69920202F58062426581
:104EB000C2654FF40072826594E7036840F2FF52C6
:104EC0009A63836B43F080538363012380F834300B
:104ED000184630BD70B5762398B0002504460C9373
:104EE0000AAB0A950B9507950895099593E8070075
:104EF00007AB8DE8070020680ECB01F05BF9206856
:104F0000436823F48073436001F078F920684368B4
:104F100043F480734360069501F0E6FA064668B9EB
:104F2000206801F009FB80B34FF6FF75A664069B6D
:104F30005A1CAB42069208D14FF08076012084F8CB
:104F40003400A16B0E43A66383E00021206801F0CA
:104F50002BFB014610B14FF08056EFE7206801F0BF
:104F60003BFB01460028F6D1206801F066F90028D5
:104F7000DDDA0023636401232068ADF8163001F008
:104F800045F920BB4FF080656DE001234FF6FF75BA
:104F9000A364069B5A1CAB420692CDD00021206828
:104FA00001F002FB06460028C8D14FF0804120687E
:104FB00001F012FB06460028C0D10146206801F02E
:104FC0003CF90028E5DA4300D3D50123D2E7636C2E
:104FD000032B1AD0206801F030FB0546002842D18F
:104FE0000146206801F029F904216067206801F07A
:104FF00024F90821A067206801F01FF90C21E0675F
:10500000206801F01AF9C4F88000636C032B22D1E8
:10501000636C032B2ED10421206801F00EF90DA939
:10502000000DE0642046FFF776FE226D0023206825
:10503000120401F041FA0546A8B904F1100393E8FF
:105040000700231D8DE8070020680ECB01F0B2F8A1
:10505000284618B070BD0DF11601206801F018FB4C
:1050600005460028D4D0012084F83400A36B1D43EA
:10507000A563EEE7BDF8161020682165090401F06C
:10508000F1FA05460028EED10146206801F0D5F876
:1050900004216066206801F0D0F80821A06620682D
:1050A00001F0CBF80C21E066206801F0C6F820671B
:1050B000B1E710B50446A0B190F8343003F0FF0218
:1050C00013B90277FFF790FC0323204684F83430AD
:1050D000FFF700FF00200123A063206384F8343031
:1050E00010BD012010BD436C0B60836C4B60C36C22
:1050F0008B60036DCB60436D0B61836D4B61C36D42
:105100008B61036E0020CB617047032370B580F87C
:1051100034308AB0436C04460E46032B02D0B1F5FE
:10512000805F03D1A36B43F0805356E0B1F5006F6D
:105130002DD1002100680491059101F07EF88001D5
:1051400020D404A92046FFF7E5FB60B9059B59036D
:105150001AD5216D2068090401F026FA18B9022138
:10516000206801F019FBA36B1843A063A56B002D09
:1051700035D0236840F2FF5201209A6384F834004E
:105180000AB070BD3046EEE74FF08060EBE709BB38
:1051900000680491059101F050F8820114D404A92B
:1051A0002046FFF7B7FB60B9059BDB030FD5216DE8
:1051B0002068090401F0F8F918B90146206801F0E7
:1051C000EBFAA16B0843D0E74FF40060F9E74FF02A
:1051D0008060F6E7836B43F00063A363C6E7636810
:1051E00007960493A3680593E3680693636908939D
:1051F000A36909930AAB13E9070004AB8DE8070024
:1052000020680ECB00F0D6FF0123284684F8343006
:10521000B6E7016D10B509040446006801F08CFA88
:10522000014628B9206801F008F8C0F3432010BDFA
:10523000A36B00201943A163F7E7704738B50D460B
:105240000446C8B190F82C3003F0FF021BB980F877
:105250002D20FFF7F2FF0223211D206884F82C3057
:1052600000F0ADFE62682946206800F0E7FE0123E9
:10527000002084F82C3038BD012038BD38B50446F4
:1052800090F82C000D46C0B202280DD002232068F1
:1052900084F82C3000F01AFF2B680020022B0CBF82
:1052A0000523012384F82C3038BD10B5044690F84E
:1052B0002C00C0B2022809D00223206884F82C30C8
:1052C00000F029FF0123002084F82C3010BD036872
:1052D0005A6822F0E0025A604268B2F5827F0AD131
:1052E0008268B2F5004F02D0B2F5806F03D11A6820
:1052F00022F040021A60826AB2F5005F09D11A6892
:1053000022F400521204120C1A601A6842F400527D
:105310001A60012380F85D30002380F85C300320A0
:1053200070472DE9F041DDF8188005460F46164616
:105330001C462B6898683840B04202D10020BDE876
:10534000F081621CF6D024B92846BDE8F041FFF791
:10535000BEBFFCF7A9FAA0EB08008442E9D8F3E746
:105360002DE9F341089D0746884616461C463A68D3
:10537000906800EA0800B04201D100200FE0B8F5C3
:10538000C06F06D12EB9137BDBB28DF807309DF8C4
:105390000730631CECD02CB93846FFF798FF02B0F9
:1053A000BDE8F081FCF780FA401B8442DFD8F3E7C8
:1053B00073B50B4600920D4616464FF4C0510022BD
:1053C0000446FFF7CDFF024628B1236E032043F0C9
:1053D0002003236611E000962B4680212046FFF72C
:1053E000A0FF02460028F0D100962B464FF4C06182
:1053F0002046FFF7B5FF0028E7D102B070BDF8B531
:10540000044600285CD090F85D3003F0FF021BB921
:1054100080F85C200DF072F902232168E26884F8BC
:105420005D300B68B2F5E06F23F040030B604FF086
:10543000000342D91D46B2F5706F18BFA362236BFB
:105440002BB9B2F5E06F8CBF022301232363A76859
:105450006368A6693B432769A06A3B4367693B438E
:10546000E7693B43276A3B4306F4007703433B432A
:105470000B60236B022B03D10B6843F400630B60BA
:10548000636A360CB0F5005F42EA0302636B06F014
:10549000040642EA030242EA060242EA05024A60C0
:1054A00001D1E36A0B61CB69002023F40063CB6177
:1054B0000123206684F85D30F8BD4FF48055BCE7C9
:1054C0000120F8BD2DE9F043984685B0002304463D
:1054D0000D469146ADF80E3090F85C300C9E012BD5
:1054E00000F09D81012380F85C30FCF7DDF994F831
:1054F0005D3007466168DBB2012B0AD0B1F5827FCF
:1055000040F08B81A268002A40F08781042B40F094
:105510008481002D00F06A81B9F1000F00F06681EE
:10552000B8F1000F00F0628194F85D30042B02D0D6
:10553000052384F85D300023C4F84090A4F844802B
:105540002366E3642365A36AA4F84680B3F5005F8D
:10555000A563A4F83E80A4F83C80236809D11A68AA
:1055600022F400521204120C1A601A6842F400521B
:105570001A60E068B0F5E06F04D8B4F8462092B243
:10558000012A36D95A6822F480525A601A685206A3
:1055900003D41A6842F040021A60B0F5E06F7DD97A
:1055A00019B1E28F92B2012A06D135F8022BDA60E6
:1055B000E38F013B9BB2E3874FF00108E38F9BB27F
:1055C000DBB9B4F846309BB2BBB9A36AB3F5005F50
:1055D00040F0F38001220097334620461146FFF742
:1055E000A0FE002800F0DE80236E43F00203236655
:1055F00049E05A6842F48052C7E7B8F1000F28D05A
:10560000E38F9BB22BB323689A68920721D535F8B4
:10561000022BDA60E28F013A92B2E287B4F83E8060
:105620001FFA88F8B8F1000F11D1A16AB1F5005F37
:105630000FD11A68500706D45A68110703D51A68A3
:1056400042F400721A601A6842F480521A604FF0F5
:105650000008B4F846309BB273B123689A68D20749
:105660000AD5DB684FF0010829F8023BB4F8463050
:10567000013B9BB2A4F84630701C9FD0FCF714F994
:10568000C01B86429AD80325012384F85D3000238D
:1056900084F85C30284605B0BDE8F08319B1E28F8C
:1056A00092B2012A06D115F8012B1A73E38F013B40
:1056B0009BB2E3874FF00108E38F9BB223B9B4F8A4
:1056C00046309BB2002B80D0B8F1000F2DD0E38F75
:1056D0009BB253B323689A68910726D5E28F92B2A2
:1056E000012A4BD935F8022BDA60E38F023B9BB2DB
:1056F000E387B4F83E801FFA88F8B8F1000F12D1A2
:10570000A26AB2F5005F10D123681A68520706D466
:105710005A68100703D51A6842F400721A601A68B2
:1057200042F480521A604FF00008B4F846309BB241
:10573000E3B122689368D90718D5B4F846309BB214
:10574000012B23D9D36829F8023BB4F84630023B39
:105750009BB2A4F84630B4F846309BB2012B03D874
:10576000536843F4805353604FF00108731CA3D077
:10577000FCF79AF8C01B86429ED884E72A78013548
:105780001A73E38F013B9BB2E387B2E7137B09F106
:10579000010909F8013CB4F84630013B9BB2A4F87A
:1057A0004630E1E7E368B3F5706F236820D1DB682A
:1057B0009BB2ADF80E30BDF80E302268956815F03A
:1057C000100507D0236E012543F0020323664FF630
:1057D000EF7393603A4631462046FFF7E9FD08B182
:1057E00020232366236E002B3FF44EAF01254BE7A9
:1057F0001B7BADF80E30BDF80E30236B022BDCD1D5
:1058000001220097334620461146FFF78AFD002803
:105810007FF4EAAE23681B7BCBE7022534E7022541
:1058200038E770470268022380F83D30136843F080
:1058300001031360012380F83D30002070470368A6
:105840000020DA6842F00102DA601A6842F00102D0
:105850001A607047704770477047704703681A694D
:10586000910710B504460FD5DA6892070CD56FF092
:1058700002021A6101229B690277990700F0858074
:10588000FFF7E9FF0023237723681A69520710D531
:10589000DA6850070DD56FF0040220461A61022223
:1058A0009B69227713F4407F75D0FFF7D4FF002364
:1058B000237723681A6911070FD5DA6812070CD508
:1058C0006FF0080220461A610422DB6922779B07E9
:1058D00067D0FFF7C0FF0023237723681A69D0063B
:1058E00010D5DA68D1060DD56FF0100220461A6186
:1058F0000822DB69227713F4407F58D0FFF7ABFF13
:105900000023237723681A69D20708D5DA68D007FD
:1059100005D56FF0010220461A610CF0BDFF236827
:105920001A69110608D5DA68120605D56FF08002EB
:1059300020461A6100F0C5F823681A69D00508D519
:10594000DA68110605D56FF0800220461A6100F072
:10595000B8F823681A69520608D5DA68500605D5E2
:105960006FF0400220461A61FFF777FF23681A693B
:10597000910622D5DA6892061FD56FF020022046E4
:105980001A61BDE8104000F09BB8FFF763FF2046A6
:10599000FFF762FF76E7FFF75DFF2046FFF75CFF4A
:1059A00085E7FFF757FF2046FFF756FF93E7FFF71E
:1059B00051FF2046FFF750FFA2E710BD304A0368B1
:1059C000904212D0B0F1804F0FD0A2F57C429042AD
:1059D0000BD002F58062904207D002F580629042BF
:1059E00003D002F5784290421DD14A6823F070033B
:1059F0001343234A904204D123F44073CA681343EB
:105A000028E0B0F1804FF7D01E4A9042F4D002F562
:105A100080629042F0D002F580629042ECD002F5B4
:105A200078429042E8D0184A9042E5D002F5806270
:105A30009042E1D002F580629042DDD0A2F598322A
:105A40009042D9D002F580629042D5D002F58062B2
:105A50009042D1D04A6923F08003134303608B68DE
:105A6000C3620B688362064B984206D003F58063DD
:105A7000984202D00123436170470B690363F9E741
:105A800000000140000400400040014010B5044601
:105A9000A0B190F83D3003F0FF021BB980F83C2024
:105AA000FFF7BFFE02232068211D84F83D30FFF779
:105AB00085FF0123002084F83D3010BD012010BD7A
:105AC0007047704770472DE9F041069D04460F4628
:105AD000164698462168CA6937EA02030CBF0122BC
